{
  "contractName": "Dex",
  "abi": [
    {
      "anonymous": false,
      "inputs": [
        {
          "indexed": true,
          "internalType": "address",
          "name": "previousOwner",
          "type": "address"
        },
        {
          "indexed": true,
          "internalType": "address",
          "name": "newOwner",
          "type": "address"
        }
      ],
      "name": "OwnershipTransferred",
      "type": "event"
    },
    {
      "inputs": [
        {
          "internalType": "uint256",
          "name": "",
          "type": "uint256"
        }
      ],
      "name": "Tokenlist",
      "outputs": [
        {
          "internalType": "bytes32",
          "name": "",
          "type": "bytes32"
        }
      ],
      "stateMutability": "view",
      "type": "function"
    },
    {
      "inputs": [],
      "name": "addEthToken",
      "outputs": [],
      "stateMutability": "nonpayable",
      "type": "function"
    },
    {
      "inputs": [
        {
          "internalType": "bytes32",
          "name": "_ticker",
          "type": "bytes32"
        },
        {
          "internalType": "address",
          "name": "_tokenAddress",
          "type": "address"
        }
      ],
      "name": "addToken",
      "outputs": [],
      "stateMutability": "nonpayable",
      "type": "function"
    },
    {
      "inputs": [
        {
          "internalType": "address",
          "name": "",
          "type": "address"
        },
        {
          "internalType": "bytes32",
          "name": "",
          "type": "bytes32"
        }
      ],
      "name": "balances",
      "outputs": [
        {
          "internalType": "uint256",
          "name": "",
          "type": "uint256"
        }
      ],
      "stateMutability": "view",
      "type": "function"
    },
    {
      "inputs": [
        {
          "internalType": "bytes32",
          "name": "_ticker",
          "type": "bytes32"
        },
        {
          "internalType": "uint256",
          "name": "amount",
          "type": "uint256"
        }
      ],
      "name": "deposit",
      "outputs": [],
      "stateMutability": "nonpayable",
      "type": "function"
    },
    {
      "inputs": [],
      "name": "depositETH",
      "outputs": [
        {
          "internalType": "uint256",
          "name": "",
          "type": "uint256"
        }
      ],
      "stateMutability": "payable",
      "type": "function"
    },
    {
      "inputs": [],
      "name": "owner",
      "outputs": [
        {
          "internalType": "address",
          "name": "",
          "type": "address"
        }
      ],
      "stateMutability": "view",
      "type": "function"
    },
    {
      "inputs": [],
      "name": "renounceOwnership",
      "outputs": [],
      "stateMutability": "nonpayable",
      "type": "function"
    },
    {
      "inputs": [
        {
          "internalType": "bytes32",
          "name": "",
          "type": "bytes32"
        }
      ],
      "name": "tokenMapping",
      "outputs": [
        {
          "internalType": "bytes32",
          "name": "ticker",
          "type": "bytes32"
        },
        {
          "internalType": "address",
          "name": "tokenAddress",
          "type": "address"
        }
      ],
      "stateMutability": "view",
      "type": "function"
    },
    {
      "inputs": [
        {
          "internalType": "address",
          "name": "newOwner",
          "type": "address"
        }
      ],
      "name": "transferOwnership",
      "outputs": [],
      "stateMutability": "nonpayable",
      "type": "function"
    },
    {
      "inputs": [
        {
          "internalType": "bytes32",
          "name": "_ticker",
          "type": "bytes32"
        },
        {
          "internalType": "uint256",
          "name": "amount",
          "type": "uint256"
        }
      ],
      "name": "withdrawal",
      "outputs": [],
      "stateMutability": "nonpayable",
      "type": "function"
    },
    {
      "inputs": [
        {
          "internalType": "bytes32",
          "name": "_ticker",
          "type": "bytes32"
        },
        {
          "internalType": "enum Dex.side",
          "name": "orderSide",
          "type": "uint8"
        }
      ],
      "name": "getOrderbook",
      "outputs": [
        {
          "components": [
            {
              "internalType": "uint256",
              "name": "id",
              "type": "uint256"
            },
            {
              "internalType": "address",
              "name": "traderAddress",
              "type": "address"
            },
            {
              "internalType": "enum Dex.side",
              "name": "orderSide",
              "type": "uint8"
            },
            {
              "internalType": "bytes32",
              "name": "ticker",
              "type": "bytes32"
            },
            {
              "internalType": "uint256",
              "name": "amount",
              "type": "uint256"
            },
            {
              "internalType": "uint256",
              "name": "price",
              "type": "uint256"
            },
            {
              "internalType": "uint256",
              "name": "filled",
              "type": "uint256"
            }
          ],
          "internalType": "struct Dex.Order[]",
          "name": "",
          "type": "tuple[]"
        }
      ],
      "stateMutability": "view",
      "type": "function"
    },
    {
      "inputs": [
        {
          "internalType": "address",
          "name": "_trader",
          "type": "address"
        },
        {
          "internalType": "enum Dex.side",
          "name": "orderSide",
          "type": "uint8"
        },
        {
          "internalType": "bytes32",
          "name": "_ticker",
          "type": "bytes32"
        },
        {
          "internalType": "uint256",
          "name": "_price",
          "type": "uint256"
        },
        {
          "internalType": "uint256",
          "name": "_amount",
          "type": "uint256"
        }
      ],
      "name": "checkBalance",
      "outputs": [],
      "stateMutability": "view",
      "type": "function"
    },
    {
      "inputs": [
        {
          "internalType": "enum Dex.side",
          "name": "orderSide",
          "type": "uint8"
        },
        {
          "internalType": "bytes32",
          "name": "_ticker",
          "type": "bytes32"
        },
        {
          "internalType": "uint256",
          "name": "_price",
          "type": "uint256"
        },
        {
          "internalType": "uint256",
          "name": "_amount",
          "type": "uint256"
        }
      ],
      "name": "createLimitOrder",
      "outputs": [],
      "stateMutability": "nonpayable",
      "type": "function"
    },
    {
      "inputs": [
        {
          "internalType": "enum Dex.side",
          "name": "orderSide",
          "type": "uint8"
        },
        {
          "internalType": "bytes32",
          "name": "_ticker",
          "type": "bytes32"
        },
        {
          "internalType": "uint256",
          "name": "_amount",
          "type": "uint256"
        }
      ],
      "name": "marketOrder",
      "outputs": [],
      "stateMutability": "nonpayable",
      "type": "function"
    }
  ],
  "bytecode": "0x608060405260006005553480156200001657600080fd5b50620000376200002b6200003d60201b60201c565b6200004560201b60201c565b62000109565b600033905090565b60008060009054906101000a900473ffffffffffffffffffffffffffffffffffffffff169050816000806101000a81548173ffffffffffffffffffffffffffffffffffffffff021916908373ffffffffffffffffffffffffffffffffffffffff1602179055508173ffffffffffffffffffffffffffffffffffffffff168173ffffffffffffffffffffffffffffffffffffffff167f8be0079c531659141344cd1fd0a4f28419497f9722a3daafe3b4186f6b6457e060405160405180910390a35050565b613a6b80620001196000396000f3fe6080604052600436106100e85760003560e01c8063715018a61161008a5780639da16c22116100595780639da16c22146102df578063efa3769914610308578063f2fde38b14610331578063f6326fb31461035a576100e8565b8063715018a6146102375780637da3048e1461024e5780638da5cb5b1461028b5780639776aacf146102b6576100e8565b80633f5789f4116100c65780633f5789f414610190578063667cb4ba146101a75780636cd78da3146101e55780636f3b62f91461020e576100e8565b80630b8d6d71146100ed5780631de26e161461012a5780631f14df6914610153575b600080fd5b3480156100f957600080fd5b50610114600480360381019061010f9190613092565b610378565b60405161012191906133cd565b60405180910390f35b34801561013657600080fd5b50610151600480360381019061014c9190612f98565b61039c565b005b34801561015f57600080fd5b5061017a60048036038101906101759190612e03565b6105c5565b60405161018791906134f1565b60405180910390f35b34801561019c57600080fd5b506101a56105ea565b005b3480156101b357600080fd5b506101ce60048036038101906101c99190612eeb565b610692565b6040516101dc9291906133e8565b60405180910390f35b3480156101f157600080fd5b5061020c60048036038101906102079190612f98565b6106d6565b005b34801561021a57600080fd5b506102356004803603810190610230919061302b565b610990565b005b34801561024357600080fd5b5061024c611747565b005b34801561025a57600080fd5b5061027560048036038101906102709190612f58565b6117cf565b60405161028291906133ab565b60405180910390f35b34801561029757600080fd5b506102a0611928565b6040516102ad9190613330565b60405180910390f35b3480156102c257600080fd5b506102dd60048036038101906102d89190612f18565b611951565b005b3480156102eb57600080fd5b5061030660048036038101906103019190612e43565b6119db565b005b34801561031457600080fd5b5061032f600480360381019061032a9190612fd8565b611b9a565b005b34801561033d57600080fd5b5061035860048036038101906103539190612dd6565b61217e565b005b610362612276565b60405161036f91906134f1565b60405180910390f35b6002818154811061038857600080fd5b906000526020600020016000915090505481565b81600073ffffffffffffffffffffffffffffffffffffffff166001600083815260200190815260200160002060010160009054906101000a900473ffffffffffffffffffffffffffffffffffffffff1673ffffffffffffffffffffffffffffffffffffffff161415610443576040517f08c379a000000000000000000000000000000000000000000000000000000000815260040161043a90613451565b60405180910390fd5b6104a682600360003373ffffffffffffffffffffffffffffffffffffffff1673ffffffffffffffffffffffffffffffffffffffff1681526020019081526020016000206000868152602001908152602001600020546123e590919063ffffffff16565b600360003373ffffffffffffffffffffffffffffffffffffffff1673ffffffffffffffffffffffffffffffffffffffff1681526020019081526020016000206000858152602001908152602001600020819055506001600084815260200190815260200160002060010160009054906101000a900473ffffffffffffffffffffffffffffffffffffffff1673ffffffffffffffffffffffffffffffffffffffff166323b872dd3330856040518463ffffffff1660e01b815260040161056d93929190613374565b602060405180830381600087803b15801561058757600080fd5b505af115801561059b573d6000803e3d6000fd5b505050506040513d601f19601f820116820180604052508101906105bf9190612ebe565b50505050565b6003602052816000526040600020602052806000526040600020600091509150505481565b6105f26123fb565b73ffffffffffffffffffffffffffffffffffffffff16610610611928565b73ffffffffffffffffffffffffffffffffffffffff1614610666576040517f08c379a000000000000000000000000000000000000000000000000000000000815260040161065d906134b1565b60405180910390fd5b6106907f455448000000000000000000000000000000000000000000000000000000000033612403565b565b60016020528060005260406000206000915090508060000154908060010160009054906101000a900473ffffffffffffffffffffffffffffffffffffffff16905082565b81600073ffffffffffffffffffffffffffffffffffffffff166001600083815260200190815260200160002060010160009054906101000a900473ffffffffffffffffffffffffffffffffffffffff1673ffffffffffffffffffffffffffffffffffffffff16141561077d576040517f08c379a000000000000000000000000000000000000000000000000000000000815260040161077490613451565b60405180910390fd5b81600360003373ffffffffffffffffffffffffffffffffffffffff1673ffffffffffffffffffffffffffffffffffffffff1681526020019081526020016000206000858152602001908152602001600020541015610810576040517f08c379a000000000000000000000000000000000000000000000000000000000815260040161080790613491565b60405180910390fd5b61087382600360003373ffffffffffffffffffffffffffffffffffffffff1673ffffffffffffffffffffffffffffffffffffffff16815260200190815260200160002060008681526020019081526020016000205461253e90919063ffffffff16565b600360003373ffffffffffffffffffffffffffffffffffffffff1673ffffffffffffffffffffffffffffffffffffffff1681526020019081526020016000206000858152602001908152602001600020819055506001600084815260200190815260200160002060010160009054906101000a900473ffffffffffffffffffffffffffffffffffffffff1673ffffffffffffffffffffffffffffffffffffffff1663a9059cbb33846040518363ffffffff1660e01b815260040161093892919061334b565b602060405180830381600087803b15801561095257600080fd5b505af1158015610966573d6000803e3d6000fd5b505050506040513d601f19601f8201168201806040525081019061098a9190612ebe565b50505050565b61099d33858585856119db565b60008060018111156109b2576109b16137b8565b5b8560018111156109c5576109c46137b8565b5b14156109d457600190506109d9565b600090505b6000600460008681526020019081526020016000206000838152602001908152602001600020905060008060008590505b6000848054905014158015610a2e575060018480549050610a2b9190613606565b83105b8015610a5d575086848481548110610a4957610a48613816565b5b906000526020600020906006020160040154145b8015610a6857508582105b15610bf557610a80828761253e90919063ffffffff16565b90506000610adf858581548110610a9a57610a99613816565b5b906000526020600020906006020160050154868681548110610abf57610abe613816565b5b90600052602060002090600602016003015461253e90919063ffffffff16565b9050600081831015610af357829050610af7565b8190505b610b2e81878781548110610b0e57610b0d613816565b5b9060005260206000209060060201600501546123e590919063ffffffff16565b868681548110610b4157610b40613816565b5b906000526020600020906006020160050181905550610b6981856123e590919063ffffffff16565b9350610be08b8b888881548110610b8357610b82613816565b5b906000526020600020906006020160010160009054906101000a900473ffffffffffffffffffffffffffffffffffffffff16848a8a81548110610bc957610bc8613816565b5b906000526020600020906006020160040154612554565b8480610beb90613711565b9550505050610a0a565b5b60008480549050118015610c53575083600081548110610c1957610c18613816565b5b90600052602060002090600602016003015484600081548110610c3f57610c3e613816565b5b906000526020600020906006020160050154145b15610e405760005b60018580549050610c6c9190613606565b811015610dad5784600182610c819190613556565b81548110610c9257610c91613816565b5b9060005260206000209060060201858281548110610cb357610cb2613816565b5b9060005260206000209060060201600082015481600001556001820160009054906101000a900473ffffffffffffffffffffffffffffffffffffffff168160010160006101000a81548173ffffffffffffffffffffffffffffffffffffffff021916908373ffffffffffffffffffffffffffffffffffffffff1602179055506001820160149054906101000a900460ff168160010160146101000a81548160ff02191690836001811115610d6a57610d696137b8565b5b0217905550600282015481600201556003820154816003015560048201548160040155600582015481600501559050508080610da590613711565b915050610c5b565b5083805480610dbf57610dbe6137e7565b5b60019003818190600052602060002090600602016000808201600090556001820160006101000a81549073ffffffffffffffffffffffffffffffffffffffff02191690556001820160146101000a81549060ff0219169055600282016000905560038201600090556004820160009055600582016000905550509055610bf6565b6000811461173c576000600460008a815260200190815260200160002060008b6001811115610e7257610e716137b8565b5b81526020019081526020016000209050806040518060e0016040528060055481526020013373ffffffffffffffffffffffffffffffffffffffff1681526020018c6001811115610ec557610ec46137b8565b5b81526020018b81526020018481526020018a8152602001600081525090806001815401808255809150506001900390600052602060002090600602016000909190919091506000820151816000015560208201518160010160006101000a81548173ffffffffffffffffffffffffffffffffffffffff021916908373ffffffffffffffffffffffffffffffffffffffff16021790555060408201518160010160146101000a81548160ff02191690836001811115610f8657610f856137b8565b5b0217905550606082015181600201556080820151816003015560a0820151816004015560c0820151816005015550506000818054905011610fc8576000610fda565b60018180549050610fd99190613606565b5b935060006001811115610ff057610fef6137b8565b5b8a6001811115611003576110026137b8565b5b1415611381575b600084111561137c57806001856110219190613606565b8154811061103257611031613816565b5b90600052602060002090600602016004015481858154811061105757611056613816565b5b90600052602060002090600602016004015410156110745761137c565b600081858154811061108957611088613816565b5b90600052602060002090600602016040518060e0016040529081600082015481526020016001820160009054906101000a900473ffffffffffffffffffffffffffffffffffffffff1673ffffffffffffffffffffffffffffffffffffffff1673ffffffffffffffffffffffffffffffffffffffff1681526020016001820160149054906101000a900460ff166001811115611127576111266137b8565b5b6001811115611139576111386137b8565b5b81526020016002820154815260200160038201548152602001600482015481526020016005820154815250509050816001866111759190613606565b8154811061118657611185613816565b5b90600052602060002090600602018286815481106111a7576111a6613816565b5b9060005260206000209060060201600082015481600001556001820160009054906101000a900473ffffffffffffffffffffffffffffffffffffffff168160010160006101000a81548173ffffffffffffffffffffffffffffffffffffffff021916908373ffffffffffffffffffffffffffffffffffffffff1602179055506001820160149054906101000a900460ff168160010160146101000a81548160ff0219169083600181111561125e5761125d6137b8565b5b021790555060028201548160020155600382015481600301556004820154816004015560058201548160050155905050808260018761129d9190613606565b815481106112ae576112ad613816565b5b90600052602060002090600602016000820151816000015560208201518160010160006101000a81548173ffffffffffffffffffffffffffffffffffffffff021916908373ffffffffffffffffffffffffffffffffffffffff16021790555060408201518160010160146101000a81548160ff02191690836001811115611338576113376137b8565b5b0217905550606082015181600201556080820151816003015560a0820151816004015560c082015181600501559050508480611373906136e7565b9550505061100a565b611722565b600180811115611394576113936137b8565b5b8a60018111156113a7576113a66137b8565b5b1415611721575b6000841115611720578084815481106113ca576113c9613816565b5b906000526020600020906006020160040154816001866113ea9190613606565b815481106113fb576113fa613816565b5b906000526020600020906006020160040154101561141857611720565b6000816001866114289190613606565b8154811061143957611438613816565b5b90600052602060002090600602016040518060e0016040529081600082015481526020016001820160009054906101000a900473ffffffffffffffffffffffffffffffffffffffff1673ffffffffffffffffffffffffffffffffffffffff1673ffffffffffffffffffffffffffffffffffffffff1681526020016001820160149054906101000a900460ff1660018111156114d7576114d66137b8565b5b60018111156114e9576114e86137b8565b5b8152602001600282015481526020016003820154815260200160048201548152602001600582015481525050905081858154811061152a57611529613816565b5b9060005260206000209060060201826001876115469190613606565b8154811061155757611556613816565b5b9060005260206000209060060201600082015481600001556001820160009054906101000a900473ffffffffffffffffffffffffffffffffffffffff168160010160006101000a81548173ffffffffffffffffffffffffffffffffffffffff021916908373ffffffffffffffffffffffffffffffffffffffff1602179055506001820160149054906101000a900460ff168160010160146101000a81548160ff0219169083600181111561160e5761160d6137b8565b5b0217905550600282015481600201556003820154816003015560048201548160040155600582015481600501559050508082868154811061165257611651613816565b5b90600052602060002090600602016000820151816000015560208201518160010160006101000a81548173ffffffffffffffffffffffffffffffffffffffff021916908373ffffffffffffffffffffffffffffffffffffffff16021790555060408201518160010160146101000a81548160ff021916908360018111156116dc576116db6137b8565b5b0217905550606082015181600201556080820151816003015560a0820151816004015560c082015181600501559050508480611717906136e7565b955050506113ae565b5b5b6005600081548092919061173590613711565b9190505550505b505050505050505050565b61174f6123fb565b73ffffffffffffffffffffffffffffffffffffffff1661176d611928565b73ffffffffffffffffffffffffffffffffffffffff16146117c3576040517f08c379a00000000000000000000000000000000000000000000000000000000081526004016117ba906134b1565b60405180910390fd5b6117cd6000612c93565b565b60606004600084815260200190815260200160002060008360018111156117f9576117f86137b8565b5b8152602001908152602001600020805480602002602001604051908101604052809291908181526020016000905b8282101561191c57838290600052602060002090600602016040518060e0016040529081600082015481526020016001820160009054906101000a900473ffffffffffffffffffffffffffffffffffffffff1673ffffffffffffffffffffffffffffffffffffffff1673ffffffffffffffffffffffffffffffffffffffff1681526020016001820160149054906101000a900460ff1660018111156118cf576118ce6137b8565b5b60018111156118e1576118e06137b8565b5b815260200160028201548152602001600382015481526020016004820154815260200160058201548152505081526020019060010190611827565b50505050905092915050565b60008060009054906101000a900473ffffffffffffffffffffffffffffffffffffffff16905090565b6119596123fb565b73ffffffffffffffffffffffffffffffffffffffff16611977611928565b73ffffffffffffffffffffffffffffffffffffffff16146119cd576040517f08c379a00000000000000000000000000000000000000000000000000000000081526004016119c4906134b1565b60405180910390fd5b6119d78282612403565b5050565b600060018111156119ef576119ee6137b8565b5b846001811115611a0257611a016137b8565b5b1415611ad257611a1b8282612d5790919063ffffffff16565b600360008773ffffffffffffffffffffffffffffffffffffffff1673ffffffffffffffffffffffffffffffffffffffff16815260200190815260200160002060007f45544800000000000000000000000000000000000000000000000000000000008152602001908152602001600020541015611acd576040517f08c379a0000000000000000000000000000000000000000000000000000000008152600401611ac4906134d1565b60405180910390fd5b611b93565b600180811115611ae557611ae46137b8565b5b846001811115611af857611af76137b8565b5b1415611b925780600360008773ffffffffffffffffffffffffffffffffffffffff1673ffffffffffffffffffffffffffffffffffffffff1681526020019081526020016000206000858152602001908152602001600020541015611b91576040517f08c379a0000000000000000000000000000000000000000000000000000000008152600401611b8890613471565b60405180910390fd5b5b5b5050505050565b600080600090506000806001811115611bb657611bb56137b8565b5b866001811115611bc957611bc86137b8565b5b1415611bd85760019250611c70565b83600360003373ffffffffffffffffffffffffffffffffffffffff1673ffffffffffffffffffffffffffffffffffffffff1681526020019081526020016000206000878152602001908152602001600020541015611c6b576040517f08c379a0000000000000000000000000000000000000000000000000000000008152600401611c6290613411565b60405180910390fd5b600092505b60046000868152602001908152602001600020600084815260200190815260200160002090506000915060005b818054905081108015611caf57508483105b15611f2a576000611cc9848761253e90919063ffffffff16565b90506000611d28848481548110611ce357611ce2613816565b5b906000526020600020906006020160050154858581548110611d0857611d07613816565b5b90600052602060002090600602016003015461253e90919063ffffffff16565b9050600081831015611d3c57829050611d40565b8190505b611d7781868681548110611d5757611d56613816565b5b9060005260206000209060060201600501546123e590919063ffffffff16565b858581548110611d8a57611d89613816565b5b906000526020600020906006020160050181905550611db281876123e590919063ffffffff16565b95506000611ded868681548110611dcc57611dcb613816565b5b90600052602060002090600602016004015483612d5790919063ffffffff16565b905060006001811115611e0357611e026137b8565b5b8b6001811115611e1657611e156137b8565b5b1415611e9e5780600360003373ffffffffffffffffffffffffffffffffffffffff1673ffffffffffffffffffffffffffffffffffffffff16815260200190815260200160002060007f45544800000000000000000000000000000000000000000000000000000000008152602001908152602001600020541015611e9d57611e9c61375a565b5b5b611f138b8b888881548110611eb657611eb5613816565b5b906000526020600020906006020160010160009054906101000a900473ffffffffffffffffffffffffffffffffffffffff16858a8a81548110611efc57611efb613816565b5b906000526020600020906006020160040154612554565b505050508080611f2290613711565b915050611c9d565b505b60008180549050118015611f89575080600081548110611f4f57611f4e613816565b5b90600052602060002090600602016003015481600081548110611f7557611f74613816565b5b906000526020600020906006020160050154145b156121765760005b60018280549050611fa29190613606565b8110156120e35781600182611fb79190613556565b81548110611fc857611fc7613816565b5b9060005260206000209060060201828281548110611fe957611fe8613816565b5b9060005260206000209060060201600082015481600001556001820160009054906101000a900473ffffffffffffffffffffffffffffffffffffffff168160010160006101000a81548173ffffffffffffffffffffffffffffffffffffffff021916908373ffffffffffffffffffffffffffffffffffffffff1602179055506001820160149054906101000a900460ff168160010160146101000a81548160ff021916908360018111156120a05761209f6137b8565b5b02179055506002820154816002015560038201548160030155600482015481600401556005820154816005015590505080806120db90613711565b915050611f91565b50808054806120f5576120f46137e7565b5b60019003818190600052602060002090600602016000808201600090556001820160006101000a81549073ffffffffffffffffffffffffffffffffffffffff02191690556001820160146101000a81549060ff0219169055600282016000905560038201600090556004820160009055600582016000905550509055611f2c565b505050505050565b6121866123fb565b73ffffffffffffffffffffffffffffffffffffffff166121a4611928565b73ffffffffffffffffffffffffffffffffffffffff16146121fa576040517f08c379a00000000000000000000000000000000000000000000000000000000081526004016121f1906134b1565b60405180910390fd5b600073ffffffffffffffffffffffffffffffffffffffff168173ffffffffffffffffffffffffffffffffffffffff16141561226a576040517f08c379a000000000000000000000000000000000000000000000000000000000815260040161226190613431565b60405180910390fd5b61227381612c93565b50565b60006122fb34600360003373ffffffffffffffffffffffffffffffffffffffff1673ffffffffffffffffffffffffffffffffffffffff16815260200190815260200160002060007f45544800000000000000000000000000000000000000000000000000000000008152602001908152602001600020546123e590919063ffffffff16565b600360003373ffffffffffffffffffffffffffffffffffffffff1673ffffffffffffffffffffffffffffffffffffffff16815260200190815260200160002060007f4554480000000000000000000000000000000000000000000000000000000000815260200190815260200160002081905550600360003373ffffffffffffffffffffffffffffffffffffffff1673ffffffffffffffffffffffffffffffffffffffff16815260200190815260200160002060007f4554480000000000000000000000000000000000000000000000000000000000815260200190815260200160002054905090565b600081836123f39190613556565b905092915050565b600033905090565b61240b6123fb565b73ffffffffffffffffffffffffffffffffffffffff16612429611928565b73ffffffffffffffffffffffffffffffffffffffff161461247f576040517f08c379a0000000000000000000000000000000000000000000000000000000008152600401612476906134b1565b60405180910390fd5b60405180604001604052808381526020018273ffffffffffffffffffffffffffffffffffffffff16815250600160008481526020019081526020016000206000820151816000015560208201518160010160006101000a81548173ffffffffffffffffffffffffffffffffffffffff021916908373ffffffffffffffffffffffffffffffffffffffff16021790555090505060028290806001815401808255809150506001900390600052602060002001600090919091909150555050565b6000818361254c9190613606565b905092915050565b60006125698284612d5790919063ffffffff16565b90506000600181111561257f5761257e6137b8565b5b866001811115612592576125916137b8565b5b14156128f5576125fb83600360008773ffffffffffffffffffffffffffffffffffffffff1673ffffffffffffffffffffffffffffffffffffffff16815260200190815260200160002060008881526020019081526020016000205461253e90919063ffffffff16565b600360008673ffffffffffffffffffffffffffffffffffffffff1673ffffffffffffffffffffffffffffffffffffffff1681526020019081526020016000206000878152602001908152602001600020819055506126d281600360008773ffffffffffffffffffffffffffffffffffffffff1673ffffffffffffffffffffffffffffffffffffffff16815260200190815260200160002060007f45544800000000000000000000000000000000000000000000000000000000008152602001908152602001600020546123e590919063ffffffff16565b600360008673ffffffffffffffffffffffffffffffffffffffff1673ffffffffffffffffffffffffffffffffffffffff16815260200190815260200160002060007f45544800000000000000000000000000000000000000000000000000000000008152602001908152602001600020819055506127a983600360003373ffffffffffffffffffffffffffffffffffffffff1673ffffffffffffffffffffffffffffffffffffffff1681526020019081526020016000206000888152602001908152602001600020546123e590919063ffffffff16565b600360003373ffffffffffffffffffffffffffffffffffffffff1673ffffffffffffffffffffffffffffffffffffffff16815260200190815260200160002060008781526020019081526020016000208190555061288081600360003373ffffffffffffffffffffffffffffffffffffffff1673ffffffffffffffffffffffffffffffffffffffff16815260200190815260200160002060007f455448000000000000000000000000000000000000000000000000000000000081526020019081526020016000205461253e90919063ffffffff16565b600360003373ffffffffffffffffffffffffffffffffffffffff1673ffffffffffffffffffffffffffffffffffffffff16815260200190815260200160002060007f45544800000000000000000000000000000000000000000000000000000000008152602001908152602001600020819055505b600180811115612908576129076137b8565b5b86600181111561291b5761291a6137b8565b5b1415612c8b5761292e33878785876119db565b6129b181600360008773ffffffffffffffffffffffffffffffffffffffff1673ffffffffffffffffffffffffffffffffffffffff16815260200190815260200160002060007f455448000000000000000000000000000000000000000000000000000000000081526020019081526020016000205461253e90919063ffffffff16565b600360008673ffffffffffffffffffffffffffffffffffffffff1673ffffffffffffffffffffffffffffffffffffffff16815260200190815260200160002060007f4554480000000000000000000000000000000000000000000000000000000000815260200190815260200160002081905550612a8883600360008773ffffffffffffffffffffffffffffffffffffffff1673ffffffffffffffffffffffffffffffffffffffff1681526020019081526020016000206000888152602001908152602001600020546123e590919063ffffffff16565b600360008673ffffffffffffffffffffffffffffffffffffffff1673ffffffffffffffffffffffffffffffffffffffff168152602001908152602001600020600087815260200190815260200160002081905550612b5f81600360003373ffffffffffffffffffffffffffffffffffffffff1673ffffffffffffffffffffffffffffffffffffffff16815260200190815260200160002060007f45544800000000000000000000000000000000000000000000000000000000008152602001908152602001600020546123e590919063ffffffff16565b600360003373ffffffffffffffffffffffffffffffffffffffff1673ffffffffffffffffffffffffffffffffffffffff16815260200190815260200160002060007f4554480000000000000000000000000000000000000000000000000000000000815260200190815260200160002081905550612c3683600360003373ffffffffffffffffffffffffffffffffffffffff1673ffffffffffffffffffffffffffffffffffffffff16815260200190815260200160002060008881526020019081526020016000205461253e90919063ffffffff16565b600360003373ffffffffffffffffffffffffffffffffffffffff1673ffffffffffffffffffffffffffffffffffffffff1681526020019081526020016000206000878152602001908152602001600020819055505b505050505050565b60008060009054906101000a900473ffffffffffffffffffffffffffffffffffffffff169050816000806101000a81548173ffffffffffffffffffffffffffffffffffffffff021916908373ffffffffffffffffffffffffffffffffffffffff1602179055508173ffffffffffffffffffffffffffffffffffffffff168173ffffffffffffffffffffffffffffffffffffffff167f8be0079c531659141344cd1fd0a4f28419497f9722a3daafe3b4186f6b6457e060405160405180910390a35050565b60008183612d6591906135ac565b905092915050565b600081359050612d7c816139c9565b92915050565b600081519050612d91816139e0565b92915050565b600081359050612da6816139f7565b92915050565b600081359050612dbb81613a0e565b92915050565b600081359050612dd081613a1e565b92915050565b600060208284031215612dec57612deb613845565b5b6000612dfa84828501612d6d565b91505092915050565b60008060408385031215612e1a57612e19613845565b5b6000612e2885828601612d6d565b9250506020612e3985828601612d97565b9150509250929050565b600080600080600060a08688031215612e5f57612e5e613845565b5b6000612e6d88828901612d6d565b9550506020612e7e88828901612dac565b9450506040612e8f88828901612d97565b9350506060612ea088828901612dc1565b9250506080612eb188828901612dc1565b9150509295509295909350565b600060208284031215612ed457612ed3613845565b5b6000612ee284828501612d82565b91505092915050565b600060208284031215612f0157612f00613845565b5b6000612f0f84828501612d97565b91505092915050565b60008060408385031215612f2f57612f2e613845565b5b6000612f3d85828601612d97565b9250506020612f4e85828601612d6d565b9150509250929050565b60008060408385031215612f6f57612f6e613845565b5b6000612f7d85828601612d97565b9250506020612f8e85828601612dac565b9150509250929050565b60008060408385031215612faf57612fae613845565b5b6000612fbd85828601612d97565b9250506020612fce85828601612dc1565b9150509250929050565b600080600060608486031215612ff157612ff0613845565b5b6000612fff86828701612dac565b935050602061301086828701612d97565b925050604061302186828701612dc1565b9150509250925092565b6000806000806080858703121561304557613044613845565b5b600061305387828801612dac565b945050602061306487828801612d97565b935050604061307587828801612dc1565b925050606061308687828801612dc1565b91505092959194509250565b6000602082840312156130a8576130a7613845565b5b60006130b684828501612dc1565b91505092915050565b60006130cb8383613284565b60e08301905092915050565b6130e08161369f565b82525050565b6130ef8161363a565b82525050565b6130fe8161363a565b82525050565b600061310f8261351c565b6131198185613534565b93506131248361350c565b8060005b8381101561315557815161313c88826130bf565b975061314783613527565b925050600181019050613128565b5085935050505092915050565b61316b81613658565b82525050565b61317a81613658565b82525050565b613189816136b1565b82525050565b600061319c601d83613545565b91506131a78261384a565b602082019050919050565b60006131bf602683613545565b91506131ca82613873565b604082019050919050565b60006131e2601483613545565b91506131ed826138c2565b602082019050919050565b6000613205602183613545565b9150613210826138eb565b604082019050919050565b6000613228601883613545565b91506132338261393a565b602082019050919050565b600061324b602083613545565b915061325682613963565b602082019050919050565b600061326e601b83613545565b91506132798261398c565b602082019050919050565b60e08201600082015161329a6000850182613312565b5060208201516132ad60208501826130e6565b5060408201516132c06040850182613180565b5060608201516132d36060850182613162565b5060808201516132e66080850182613312565b5060a08201516132f960a0850182613312565b5060c082015161330c60c0850182613312565b50505050565b61331b81613695565b82525050565b61332a81613695565b82525050565b600060208201905061334560008301846130f5565b92915050565b600060408201905061336060008301856130d7565b61336d6020830184613321565b9392505050565b600060608201905061338960008301866130f5565b61339660208301856130f5565b6133a36040830184613321565b949350505050565b600060208201905081810360008301526133c58184613104565b905092915050565b60006020820190506133e26000830184613171565b92915050565b60006040820190506133fd6000830185613171565b61340a60208301846130f5565b9392505050565b6000602082019050818103600083015261342a8161318f565b9050919050565b6000602082019050818103600083015261344a816131b2565b9050919050565b6000602082019050818103600083015261346a816131d5565b9050919050565b6000602082019050818103600083015261348a816131f8565b9050919050565b600060208201905081810360008301526134aa8161321b565b9050919050565b600060208201905081810360008301526134ca8161323e565b9050919050565b600060208201905081810360008301526134ea81613261565b9050919050565b60006020820190506135066000830184613321565b92915050565b6000819050602082019050919050565b600081519050919050565b6000602082019050919050565b600082825260208201905092915050565b600082825260208201905092915050565b600061356182613695565b915061356c83613695565b9250827fffffffffffffffffffffffffffffffffffffffffffffffffffffffffffffffff038211156135a1576135a0613789565b5b828201905092915050565b60006135b782613695565b91506135c283613695565b9250817fffffffffffffffffffffffffffffffffffffffffffffffffffffffffffffffff04831182151516156135fb576135fa613789565b5b828202905092915050565b600061361182613695565b915061361c83613695565b92508282101561362f5761362e613789565b5b828203905092915050565b600061364582613675565b9050919050565b60008115159050919050565b6000819050919050565b6000819050613670826139b5565b919050565b600073ffffffffffffffffffffffffffffffffffffffff82169050919050565b6000819050919050565b60006136aa826136c3565b9050919050565b60006136bc82613662565b9050919050565b60006136ce826136d5565b9050919050565b60006136e082613675565b9050919050565b60006136f282613695565b9150600082141561370657613705613789565b5b600182039050919050565b600061371c82613695565b91507fffffffffffffffffffffffffffffffffffffffffffffffffffffffffffffffff82141561374f5761374e613789565b5b600182019050919050565b7f4e487b7100000000000000000000000000000000000000000000000000000000600052600160045260246000fd5b7f4e487b7100000000000000000000000000000000000000000000000000000000600052601160045260246000fd5b7f4e487b7100000000000000000000000000000000000000000000000000000000600052602160045260246000fd5b7f4e487b7100000000000000000000000000000000000000000000000000000000600052603160045260246000fd5b7f4e487b7100000000000000000000000000000000000000000000000000000000600052603260045260246000fd5b600080fd5b7f455243323020546f6b656e2062616c616e636520746f6f206c6f772121000000600082015250565b7f4f776e61626c653a206e6577206f776e657220697320746865207a65726f206160008201527f6464726573730000000000000000000000000000000000000000000000000000602082015250565b7f546f6b656e20646f6573206e6f74206578697374000000000000000000000000600082015250565b7f20596f757220455243323020546f6b656e2042616c616e636520746f6f206c6f60008201527f7700000000000000000000000000000000000000000000000000000000000000602082015250565b7f2042616c616e6365206e6f742073756666696369656e74200000000000000000600082015250565b7f4f776e61626c653a2063616c6c6572206973206e6f7420746865206f776e6572600082015250565b7f596f7572204554482042616c616e636520697320746f6f206c6f770000000000600082015250565b600281106139c6576139c56137b8565b5b50565b6139d28161363a565b81146139dd57600080fd5b50565b6139e98161364c565b81146139f457600080fd5b50565b613a0081613658565b8114613a0b57600080fd5b50565b60028110613a1b57600080fd5b50565b613a2781613695565b8114613a3257600080fd5b5056fea264697066735822122064c23a821ecfa0af2d5e87f0f7505d4f52f74988e44aa852c1a5cce47ebb2a4b64736f6c63430008060033",
  "immutableReferences": {},
  "source": "// SPDX-License-Identifier: Undefined\n\npragma solidity 0.8.6;\npragma experimental ABIEncoderV2;\n\nimport \"../node_modules/@openzeppelin/contracts/token/ERC20/IERC20.sol\";\nimport \"../node_modules/@openzeppelin/contracts/utils/math/SafeMath.sol\";\nimport \"../node_modules/@openzeppelin/contracts/access/Ownable.sol\";\nimport \"../contracts/Wallet.sol\";\n\ncontract Dex is Wallet {\n\t// Dex.defaults = ({gasPrice: 0,})\n\n\tusing SafeMath for uint256;\n\n\tenum side {\n\t\tBUY,\n\t\tSELL\n\t}\n\n\tstruct Order {\n\t\tuint256 id;\n\t\taddress traderAddress;\n\t\tside orderSide;\n\t\tbytes32 ticker;\n\t\tuint256 amount;\n\t\tuint256 price;\n\t\tuint256 filled;\n\t}\n\n\tmapping(bytes32 => mapping(uint256 => Order[])) Orderbook;\n\n\tuint256 nextOrderId = 0;\n\n\tfunction getOrderbook(bytes32 _ticker, side orderSide) public view returns (Order[] memory) {\n\t\treturn Orderbook[_ticker][uint256(orderSide)];\n\t}\n\n\tfunction checkBalance(\n\t\taddress _trader,\n\t\tside orderSide,\n\t\tbytes32 _ticker,\n\t\tuint256 _price,\n\t\tuint256 _amount\n\t) public view {\n\t\tif (orderSide == side.BUY) {\n\t\t\trequire(balances[_trader][\"ETH\"] >= _amount.mul(_price), \"Your ETH Balance is too low\");\n\t\t} else if (orderSide == side.SELL) {\n\t\t\trequire(balances[_trader][_ticker] >= _amount, \" Your ERC20 Token Balance too low\");\n\t\t}\n\t}\n\n\tfunction createLimitOrder(\n\t\tside orderSide,\n\t\tbytes32 _ticker,\n\t\tuint256 _price,\n\t\tuint256 _amount\n\t) public {\n\t\tcheckBalance(msg.sender, orderSide, _ticker, _price, _amount); // check that there is enough balance to place the limit order\n\n\t\tuint256 marketSide; // create variable to use to get opposite side orderbook\n\n\t\tif (orderSide == side.BUY) {\n\t\t\tmarketSide = 1;\n\t\t} else {\n\t\t\tmarketSide = 0;\n\t\t}\n\n\t\tOrder[] storage oppositeOrderBook = Orderbook[_ticker][marketSide];\n\n\t\tuint256 i = 0;\n\t\tuint256 totalFilled = 0;\n\t\tuint256 leftToFill = _amount;\n\n\t\t//  execute order if it matches the opposite orderbook\n\n\t\twhile (oppositeOrderBook.length != 0 && i < oppositeOrderBook.length - 1 && oppositeOrderBook[i].price == _price && totalFilled < _amount) {\n\t\t\tleftToFill = _amount.sub(totalFilled);\n\t\t\tuint256 availableToFill = oppositeOrderBook[i].amount.sub(oppositeOrderBook[i].filled);\n\t\t\tuint256 filled;\n\n\t\t\tif (leftToFill < availableToFill) {\n\t\t\t\tfilled = leftToFill;\n\t\t\t} else {\n\t\t\t\tfilled = availableToFill;\n\t\t\t}\n\n\t\t\toppositeOrderBook[i].filled = oppositeOrderBook[i].filled.add(filled);\n\t\t\ttotalFilled = totalFilled.add(filled);\n\n\t\t\texecuteOrder(orderSide, _ticker, oppositeOrderBook[i].traderAddress, filled, oppositeOrderBook[i].price);\n\t\t\ti++;\n\t\t}\n\n\t\twhile (oppositeOrderBook.length > 0 && oppositeOrderBook[0].filled == oppositeOrderBook[0].amount) {\n\t\t\t// if the order is filled remove the order for the orderbook\n\n\t\t\tfor (uint256 j = 0; j < oppositeOrderBook.length - 1; j++) {\n\t\t\t\toppositeOrderBook[j] = oppositeOrderBook[j + 1];\n\t\t\t}\n\n\t\t\toppositeOrderBook.pop();\n\t\t}\n\n\t\tif (leftToFill != 0) {\n\t\t\t//  if either the new limit order does not match or partly match a current order then add the limit order to the opposite orderbook\n\n\t\t\tOrder[] storage orders = Orderbook[_ticker][uint256(orderSide)];\n\n\t\t\torders.push(Order(nextOrderId, msg.sender, orderSide, _ticker, leftToFill, _price, 0));\n\t\t\ti = orders.length > 0 ? orders.length - 1 : 0;\n\n\t\t\tif (orderSide == side.BUY) {\n\t\t\t\twhile (i > 0) {\n\t\t\t\t\tif (orders[i].price < orders[i - 1].price) {\n\t\t\t\t\t\tbreak;\n\t\t\t\t\t}\n\t\t\t\t\tOrder memory orderToMove = orders[i];\n\t\t\t\t\torders[i] = orders[i - 1];\n\t\t\t\t\torders[i - 1] = orderToMove;\n\t\t\t\t\ti--;\n\t\t\t\t}\n\t\t\t} else if (orderSide == side.SELL) {\n\t\t\t\twhile (i > 0) {\n\t\t\t\t\tif (orders[i - 1].price < orders[i].price) {\n\t\t\t\t\t\tbreak;\n\t\t\t\t\t}\n\t\t\t\t\tOrder memory orderToMove = orders[i - 1];\n\t\t\t\t\torders[i - 1] = orders[i];\n\t\t\t\t\torders[i] = orderToMove;\n\t\t\t\t\ti--;\n\t\t\t\t}\n\t\t\t}\n\t\t\tnextOrderId++;\n\t\t}\n\t}\n\n\tfunction executeOrder(\n\t\tside orderSide,\n\t\tbytes32 _ticker,\n\t\taddress traderAddress,\n\t\tuint256 _amount,\n\t\tuint256 price\n\t) private {\n\t\tuint256 cost = _amount.mul(price);\n\n\t\tif (orderSide == side.BUY) {\n\t\t\t// require(balances[msg.sender][\"ETH\"] >= cost, \"Your ETH Balance is too low\");\n\t\t\t// checkBalance(msg.sender, orderSide, _ticker, price, _amount);\n\t\t\tbalances[traderAddress][_ticker] = balances[traderAddress][_ticker].sub(_amount); // remove ERC20 Token from  order on sell side address\n\t\t\tbalances[traderAddress][\"ETH\"] = balances[traderAddress][\"ETH\"].add(cost); //  add ETH to seller address\n\t\t\tbalances[msg.sender][_ticker] = balances[msg.sender][_ticker].add(_amount); // add ERC20 Token to buyer address\n\t\t\tbalances[msg.sender][\"ETH\"] = balances[msg.sender][\"ETH\"].sub(cost); // remove ETH from  buyer side address\n\t\t}\n\t\tif (orderSide == side.SELL) {\n\t\t\tcheckBalance(msg.sender, orderSide, _ticker, price, _amount);\n\t\t\tbalances[traderAddress][\"ETH\"] = balances[traderAddress][\"ETH\"].sub(cost); // remove ETH from  order on buyer side address\n\t\t\tbalances[traderAddress][_ticker] = balances[traderAddress][_ticker].add(_amount); //  add erc20 Token to buyer address\n\t\t\tbalances[msg.sender][\"ETH\"] = balances[msg.sender][\"ETH\"].add(cost); // add ETH to seller address\n\t\t\tbalances[msg.sender][_ticker] = balances[msg.sender][_ticker].sub(_amount); // remove erc20 Token from   side address\n\t\t}\n\t}\n\n\t// event ExecuteOrder(side orderSide, bytes32 _ticker, Order[] orders, uint256 _amount, uint256 i, string message);\n\n\tfunction marketOrder(\n\t\tside orderSide,\n\t\tbytes32 _ticker,\n\t\tuint256 _amount\n\t) public {\n\t\tuint256 marketOrderSide;\n\t\tuint256 totalFilled = 0;\n\t\tOrder[] storage orders;\n\n\t\tif (orderSide == side.BUY) {\n\t\t\tmarketOrderSide = 1;\n\t\t} else {\n\t\t\t// if sell order\n\t\t\trequire(balances[msg.sender][_ticker] >= _amount, \"ERC20 Token balance too low!!\");\n\t\t\tmarketOrderSide = 0;\n\t\t}\n\t\torders = Orderbook[_ticker][marketOrderSide];\n\t\ttotalFilled = 0;\n\n\t\tfor (uint256 i = 0; i < orders.length && totalFilled < _amount; i++) {\n\t\t\tuint256 leftToFill = _amount.sub(totalFilled);\n\t\t\tuint256 availableToFill = orders[i].amount.sub(orders[i].filled);\n\t\t\tuint256 filled;\n\n\t\t\tif (leftToFill < availableToFill) {\n\t\t\t\tfilled = leftToFill;\n\t\t\t} else {\n\t\t\t\tfilled = availableToFill;\n\t\t\t}\n\n\t\t\torders[i].filled = orders[i].filled.add(filled);\n\t\t\ttotalFilled = totalFilled.add(filled);\n\n\t\t\tuint256 cost = filled.mul(orders[i].price);\n\n\t\t\tif (orderSide == side.BUY) {\n\t\t\t\tassert(balances[msg.sender][\"ETH\"] >= cost);\n\t\t\t}\n\n\t\t\texecuteOrder(orderSide, _ticker, orders[i].traderAddress, filled, orders[i].price);\n\t\t}\n\n\t\twhile (orders.length > 0 && orders[0].filled == orders[0].amount) {\n\t\t\t// if the order is filled remove the order for the orderbook\n\n\t\t\tfor (uint256 j = 0; j < orders.length - 1; j++) {\n\t\t\t\torders[j] = orders[j + 1];\n\t\t\t}\n\n\t\t\torders.pop();\n\t\t}\n\t}\n}\n",
  "sourcePath": "/Users/flatart/Documents/Coding/Projects/DEX/contracts/Dex.sol",
  "compiler": {
    "name": "solc",
    "version": "0.8.6+commit.11564f7e.Emscripten.clang"
  },
  "schemaVersion": "3.4.2",
  "updatedAt": "2021-08-11T13:52:23.116Z",
  "devdoc": {
    "kind": "dev",
    "methods": {
      "owner()": {
        "details": "Returns the address of the current owner."
      },
      "renounceOwnership()": {
        "details": "Leaves the contract without owner. It will not be possible to call `onlyOwner` functions anymore. Can only be called by the current owner. NOTE: Renouncing ownership will leave the contract without an owner, thereby removing any functionality that is only available to the owner."
      },
      "transferOwnership(address)": {
        "details": "Transfers ownership of the contract to a new account (`newOwner`). Can only be called by the current owner."
      }
    },
    "version": 1
  },
  "userdoc": {
    "kind": "user",
    "methods": {},
    "version": 1
  }
}