{
  "contractName": "Dex_NoExecuteFunction",
  "abi": [
    {
      "anonymous": false,
      "inputs": [
        {
          "indexed": false,
          "internalType": "enum Dex_NoExecuteFunction.side",
          "name": "orderSide",
          "type": "uint8"
        },
        {
          "indexed": false,
          "internalType": "bytes32",
          "name": "_ticker",
          "type": "bytes32"
        },
        {
          "components": [
            {
              "internalType": "uint256",
              "name": "id",
              "type": "uint256"
            },
            {
              "internalType": "address",
              "name": "traderAddress",
              "type": "address"
            },
            {
              "internalType": "enum Dex_NoExecuteFunction.side",
              "name": "orderSide",
              "type": "uint8"
            },
            {
              "internalType": "bytes32",
              "name": "ticker",
              "type": "bytes32"
            },
            {
              "internalType": "uint256",
              "name": "amount",
              "type": "uint256"
            },
            {
              "internalType": "uint256",
              "name": "price",
              "type": "uint256"
            },
            {
              "internalType": "uint256",
              "name": "filled",
              "type": "uint256"
            }
          ],
          "indexed": false,
          "internalType": "struct Dex_NoExecuteFunction.Order[]",
          "name": "orders",
          "type": "tuple[]"
        },
        {
          "indexed": false,
          "internalType": "uint256",
          "name": "_amount",
          "type": "uint256"
        },
        {
          "indexed": false,
          "internalType": "uint256",
          "name": "i",
          "type": "uint256"
        },
        {
          "indexed": false,
          "internalType": "string",
          "name": "message",
          "type": "string"
        }
      ],
      "name": "ExecuteOrder",
      "type": "event"
    },
    {
      "anonymous": false,
      "inputs": [
        {
          "indexed": true,
          "internalType": "address",
          "name": "previousOwner",
          "type": "address"
        },
        {
          "indexed": true,
          "internalType": "address",
          "name": "newOwner",
          "type": "address"
        }
      ],
      "name": "OwnershipTransferred",
      "type": "event"
    },
    {
      "inputs": [
        {
          "internalType": "uint256",
          "name": "",
          "type": "uint256"
        }
      ],
      "name": "Tokenlist",
      "outputs": [
        {
          "internalType": "bytes32",
          "name": "",
          "type": "bytes32"
        }
      ],
      "stateMutability": "view",
      "type": "function"
    },
    {
      "inputs": [],
      "name": "addEthToken",
      "outputs": [],
      "stateMutability": "nonpayable",
      "type": "function"
    },
    {
      "inputs": [
        {
          "internalType": "bytes32",
          "name": "_ticker",
          "type": "bytes32"
        },
        {
          "internalType": "address",
          "name": "_tokenAddress",
          "type": "address"
        }
      ],
      "name": "addToken",
      "outputs": [],
      "stateMutability": "nonpayable",
      "type": "function"
    },
    {
      "inputs": [
        {
          "internalType": "address",
          "name": "",
          "type": "address"
        },
        {
          "internalType": "bytes32",
          "name": "",
          "type": "bytes32"
        }
      ],
      "name": "balances",
      "outputs": [
        {
          "internalType": "uint256",
          "name": "",
          "type": "uint256"
        }
      ],
      "stateMutability": "view",
      "type": "function"
    },
    {
      "inputs": [
        {
          "internalType": "bytes32",
          "name": "_ticker",
          "type": "bytes32"
        },
        {
          "internalType": "uint256",
          "name": "amount",
          "type": "uint256"
        }
      ],
      "name": "deposit",
      "outputs": [],
      "stateMutability": "nonpayable",
      "type": "function"
    },
    {
      "inputs": [],
      "name": "depositETH",
      "outputs": [
        {
          "internalType": "uint256",
          "name": "",
          "type": "uint256"
        }
      ],
      "stateMutability": "payable",
      "type": "function"
    },
    {
      "inputs": [],
      "name": "owner",
      "outputs": [
        {
          "internalType": "address",
          "name": "",
          "type": "address"
        }
      ],
      "stateMutability": "view",
      "type": "function"
    },
    {
      "inputs": [],
      "name": "renounceOwnership",
      "outputs": [],
      "stateMutability": "nonpayable",
      "type": "function"
    },
    {
      "inputs": [
        {
          "internalType": "bytes32",
          "name": "",
          "type": "bytes32"
        }
      ],
      "name": "tokenMapping",
      "outputs": [
        {
          "internalType": "bytes32",
          "name": "ticker",
          "type": "bytes32"
        },
        {
          "internalType": "address",
          "name": "tokenAddress",
          "type": "address"
        }
      ],
      "stateMutability": "view",
      "type": "function"
    },
    {
      "inputs": [
        {
          "internalType": "address",
          "name": "newOwner",
          "type": "address"
        }
      ],
      "name": "transferOwnership",
      "outputs": [],
      "stateMutability": "nonpayable",
      "type": "function"
    },
    {
      "inputs": [
        {
          "internalType": "bytes32",
          "name": "_ticker",
          "type": "bytes32"
        },
        {
          "internalType": "uint256",
          "name": "amount",
          "type": "uint256"
        }
      ],
      "name": "withdrawal",
      "outputs": [],
      "stateMutability": "nonpayable",
      "type": "function"
    },
    {
      "inputs": [
        {
          "internalType": "bytes32",
          "name": "_ticker",
          "type": "bytes32"
        },
        {
          "internalType": "enum Dex_NoExecuteFunction.side",
          "name": "orderSide",
          "type": "uint8"
        }
      ],
      "name": "getOrderbook",
      "outputs": [
        {
          "components": [
            {
              "internalType": "uint256",
              "name": "id",
              "type": "uint256"
            },
            {
              "internalType": "address",
              "name": "traderAddress",
              "type": "address"
            },
            {
              "internalType": "enum Dex_NoExecuteFunction.side",
              "name": "orderSide",
              "type": "uint8"
            },
            {
              "internalType": "bytes32",
              "name": "ticker",
              "type": "bytes32"
            },
            {
              "internalType": "uint256",
              "name": "amount",
              "type": "uint256"
            },
            {
              "internalType": "uint256",
              "name": "price",
              "type": "uint256"
            },
            {
              "internalType": "uint256",
              "name": "filled",
              "type": "uint256"
            }
          ],
          "internalType": "struct Dex_NoExecuteFunction.Order[]",
          "name": "",
          "type": "tuple[]"
        }
      ],
      "stateMutability": "view",
      "type": "function"
    },
    {
      "inputs": [
        {
          "internalType": "address",
          "name": "_trader",
          "type": "address"
        },
        {
          "internalType": "enum Dex_NoExecuteFunction.side",
          "name": "orderSide",
          "type": "uint8"
        },
        {
          "internalType": "bytes32",
          "name": "_ticker",
          "type": "bytes32"
        },
        {
          "internalType": "uint256",
          "name": "_price",
          "type": "uint256"
        },
        {
          "internalType": "uint256",
          "name": "_amount",
          "type": "uint256"
        }
      ],
      "name": "checkBalance",
      "outputs": [],
      "stateMutability": "view",
      "type": "function"
    },
    {
      "inputs": [
        {
          "internalType": "enum Dex_NoExecuteFunction.side",
          "name": "orderSide",
          "type": "uint8"
        },
        {
          "internalType": "bytes32",
          "name": "_ticker",
          "type": "bytes32"
        },
        {
          "internalType": "uint256",
          "name": "_price",
          "type": "uint256"
        },
        {
          "internalType": "uint256",
          "name": "_amount",
          "type": "uint256"
        }
      ],
      "name": "createLimitOrder",
      "outputs": [],
      "stateMutability": "nonpayable",
      "type": "function"
    },
    {
      "inputs": [
        {
          "internalType": "enum Dex_NoExecuteFunction.side",
          "name": "orderSide",
          "type": "uint8"
        },
        {
          "internalType": "bytes32",
          "name": "_ticker",
          "type": "bytes32"
        },
        {
          "internalType": "uint256",
          "name": "_amount",
          "type": "uint256"
        }
      ],
      "name": "marketOrder",
      "outputs": [],
      "stateMutability": "nonpayable",
      "type": "function"
    }
  ],
  "bytecode": "0x608060405260006005553480156200001657600080fd5b50620000376200002b6200003d60201b60201c565b6200004560201b60201c565b62000109565b600033905090565b60008060009054906101000a900473ffffffffffffffffffffffffffffffffffffffff169050816000806101000a81548173ffffffffffffffffffffffffffffffffffffffff021916908373ffffffffffffffffffffffffffffffffffffffff1602179055508173ffffffffffffffffffffffffffffffffffffffff168173ffffffffffffffffffffffffffffffffffffffff167f8be0079c531659141344cd1fd0a4f28419497f9722a3daafe3b4186f6b6457e060405160405180910390a35050565b61392180620001196000396000f3fe6080604052600436106100e85760003560e01c8063715018a61161008a5780639da16c22116100595780639da16c22146102df578063efa3769914610308578063f2fde38b14610331578063f6326fb31461035a576100e8565b8063715018a6146102375780637da3048e1461024e5780638da5cb5b1461028b5780639776aacf146102b6576100e8565b80633f5789f4116100c65780633f5789f414610190578063667cb4ba146101a75780636cd78da3146101e55780636f3b62f91461020e576100e8565b80630b8d6d71146100ed5780631de26e161461012a5780631f14df6914610153575b600080fd5b3480156100f957600080fd5b50610114600480360381019061010f9190612f0b565b610378565b6040516101219190613269565b60405180910390f35b34801561013657600080fd5b50610151600480360381019061014c9190612e11565b61039c565b005b34801561015f57600080fd5b5061017a60048036038101906101759190612c7c565b6105c5565b60405161018791906133ad565b60405180910390f35b34801561019c57600080fd5b506101a56105ea565b005b3480156101b357600080fd5b506101ce60048036038101906101c99190612d64565b610692565b6040516101dc929190613284565b60405180910390f35b3480156101f157600080fd5b5061020c60048036038101906102079190612e11565b6106d6565b005b34801561021a57600080fd5b5061023560048036038101906102309190612ea4565b610990565b005b34801561024357600080fd5b5061024c611298565b005b34801561025a57600080fd5b5061027560048036038101906102709190612dd1565b611320565b6040516102829190613247565b60405180910390f35b34801561029757600080fd5b506102a0611479565b6040516102ad91906131cc565b60405180910390f35b3480156102c257600080fd5b506102dd60048036038101906102d89190612d91565b6114a2565b005b3480156102eb57600080fd5b5061030660048036038101906103019190612cbc565b61152c565b005b34801561031457600080fd5b5061032f600480360381019061032a9190612e51565b6116eb565b005b34801561033d57600080fd5b5061035860048036038101906103539190612c4f565b612736565b005b61036261282e565b60405161036f91906133ad565b60405180910390f35b6002818154811061038857600080fd5b906000526020600020016000915090505481565b81600073ffffffffffffffffffffffffffffffffffffffff166001600083815260200190815260200160002060010160009054906101000a900473ffffffffffffffffffffffffffffffffffffffff1673ffffffffffffffffffffffffffffffffffffffff161415610443576040517f08c379a000000000000000000000000000000000000000000000000000000000815260040161043a9061330d565b60405180910390fd5b6104a682600360003373ffffffffffffffffffffffffffffffffffffffff1673ffffffffffffffffffffffffffffffffffffffff16815260200190815260200160002060008681526020019081526020016000205461299d90919063ffffffff16565b600360003373ffffffffffffffffffffffffffffffffffffffff1673ffffffffffffffffffffffffffffffffffffffff1681526020019081526020016000206000858152602001908152602001600020819055506001600084815260200190815260200160002060010160009054906101000a900473ffffffffffffffffffffffffffffffffffffffff1673ffffffffffffffffffffffffffffffffffffffff166323b872dd3330856040518463ffffffff1660e01b815260040161056d93929190613210565b602060405180830381600087803b15801561058757600080fd5b505af115801561059b573d6000803e3d6000fd5b505050506040513d601f19601f820116820180604052508101906105bf9190612d37565b50505050565b6003602052816000526040600020602052806000526040600020600091509150505481565b6105f26129b3565b73ffffffffffffffffffffffffffffffffffffffff16610610611479565b73ffffffffffffffffffffffffffffffffffffffff1614610666576040517f08c379a000000000000000000000000000000000000000000000000000000000815260040161065d9061336d565b60405180910390fd5b6106907f4554480000000000000000000000000000000000000000000000000000000000336129bb565b565b60016020528060005260406000206000915090508060000154908060010160009054906101000a900473ffffffffffffffffffffffffffffffffffffffff16905082565b81600073ffffffffffffffffffffffffffffffffffffffff166001600083815260200190815260200160002060010160009054906101000a900473ffffffffffffffffffffffffffffffffffffffff1673ffffffffffffffffffffffffffffffffffffffff16141561077d576040517f08c379a00000000000000000000000000000000000000000000000000000000081526004016107749061330d565b60405180910390fd5b81600360003373ffffffffffffffffffffffffffffffffffffffff1673ffffffffffffffffffffffffffffffffffffffff1681526020019081526020016000206000858152602001908152602001600020541015610810576040517f08c379a00000000000000000000000000000000000000000000000000000000081526004016108079061334d565b60405180910390fd5b61087382600360003373ffffffffffffffffffffffffffffffffffffffff1673ffffffffffffffffffffffffffffffffffffffff168152602001908152602001600020600086815260200190815260200160002054612af690919063ffffffff16565b600360003373ffffffffffffffffffffffffffffffffffffffff1673ffffffffffffffffffffffffffffffffffffffff1681526020019081526020016000206000858152602001908152602001600020819055506001600084815260200190815260200160002060010160009054906101000a900473ffffffffffffffffffffffffffffffffffffffff1673ffffffffffffffffffffffffffffffffffffffff1663a9059cbb33846040518363ffffffff1660e01b81526004016109389291906131e7565b602060405180830381600087803b15801561095257600080fd5b505af1158015610966573d6000803e3d6000fd5b505050506040513d601f19601f8201168201806040525081019061098a9190612d37565b50505050565b61099d338585858561152c565b60006004600085815260200190815260200160002060008660018111156109c7576109c6613645565b5b81526020019081526020016000209050806040518060e0016040528060055481526020013373ffffffffffffffffffffffffffffffffffffffff168152602001876001811115610a1a57610a19613645565b5b8152602001868152602001848152602001858152602001600081525090806001815401808255809150506001900390600052602060002090600602016000909190919091506000820151816000015560208201518160010160006101000a81548173ffffffffffffffffffffffffffffffffffffffff021916908373ffffffffffffffffffffffffffffffffffffffff16021790555060408201518160010160146101000a81548160ff02191690836001811115610adb57610ada613645565b5b0217905550606082015181600201556080820151816003015560a0820151816004015560c082015181600501555050600080828054905011610b1e576000610b30565b60018280549050610b2f91906134c2565b5b905060006001811115610b4657610b45613645565b5b866001811115610b5957610b58613645565b5b1415610ed7575b6000811115610ed25781600182610b7791906134c2565b81548110610b8857610b876136a3565b5b906000526020600020906006020160040154828281548110610bad57610bac6136a3565b5b9060005260206000209060060201600401541015610bca57610ed2565b6000828281548110610bdf57610bde6136a3565b5b90600052602060002090600602016040518060e0016040529081600082015481526020016001820160009054906101000a900473ffffffffffffffffffffffffffffffffffffffff1673ffffffffffffffffffffffffffffffffffffffff1673ffffffffffffffffffffffffffffffffffffffff1681526020016001820160149054906101000a900460ff166001811115610c7d57610c7c613645565b5b6001811115610c8f57610c8e613645565b5b8152602001600282015481526020016003820154815260200160048201548152602001600582015481525050905082600183610ccb91906134c2565b81548110610cdc57610cdb6136a3565b5b9060005260206000209060060201838381548110610cfd57610cfc6136a3565b5b9060005260206000209060060201600082015481600001556001820160009054906101000a900473ffffffffffffffffffffffffffffffffffffffff168160010160006101000a81548173ffffffffffffffffffffffffffffffffffffffff021916908373ffffffffffffffffffffffffffffffffffffffff1602179055506001820160149054906101000a900460ff168160010160146101000a81548160ff02191690836001811115610db457610db3613645565b5b0217905550600282015481600201556003820154816003015560048201548160040155600582015481600501559050508083600184610df391906134c2565b81548110610e0457610e036136a3565b5b90600052602060002090600602016000820151816000015560208201518160010160006101000a81548173ffffffffffffffffffffffffffffffffffffffff021916908373ffffffffffffffffffffffffffffffffffffffff16021790555060408201518160010160146101000a81548160ff02191690836001811115610e8e57610e8d613645565b5b0217905550606082015181600201556080820151816003015560a0820151816004015560c082015181600501559050508180610ec9906135a3565b92505050610b60565b611278565b600180811115610eea57610ee9613645565b5b866001811115610efd57610efc613645565b5b1415611277575b600081111561127657818181548110610f2057610f1f6136a3565b5b90600052602060002090600602016004015482600183610f4091906134c2565b81548110610f5157610f506136a3565b5b9060005260206000209060060201600401541015610f6e57611276565b600082600183610f7e91906134c2565b81548110610f8f57610f8e6136a3565b5b90600052602060002090600602016040518060e0016040529081600082015481526020016001820160009054906101000a900473ffffffffffffffffffffffffffffffffffffffff1673ffffffffffffffffffffffffffffffffffffffff1673ffffffffffffffffffffffffffffffffffffffff1681526020016001820160149054906101000a900460ff16600181111561102d5761102c613645565b5b600181111561103f5761103e613645565b5b815260200160028201548152602001600382015481526020016004820154815260200160058201548152505090508282815481106110805761107f6136a3565b5b90600052602060002090600602018360018461109c91906134c2565b815481106110ad576110ac6136a3565b5b9060005260206000209060060201600082015481600001556001820160009054906101000a900473ffffffffffffffffffffffffffffffffffffffff168160010160006101000a81548173ffffffffffffffffffffffffffffffffffffffff021916908373ffffffffffffffffffffffffffffffffffffffff1602179055506001820160149054906101000a900460ff168160010160146101000a81548160ff0219169083600181111561116457611163613645565b5b021790555060028201548160020155600382015481600301556004820154816004015560058201548160050155905050808383815481106111a8576111a76136a3565b5b90600052602060002090600602016000820151816000015560208201518160010160006101000a81548173ffffffffffffffffffffffffffffffffffffffff021916908373ffffffffffffffffffffffffffffffffffffffff16021790555060408201518160010160146101000a81548160ff0219169083600181111561123257611231613645565b5b0217905550606082015181600201556080820151816003015560a0820151816004015560c08201518160050155905050818061126d906135a3565b92505050610f04565b5b5b6005600081548092919061128b906135cd565b9190505550505050505050565b6112a06129b3565b73ffffffffffffffffffffffffffffffffffffffff166112be611479565b73ffffffffffffffffffffffffffffffffffffffff1614611314576040517f08c379a000000000000000000000000000000000000000000000000000000000815260040161130b9061336d565b60405180910390fd5b61131e6000612b0c565b565b606060046000848152602001908152602001600020600083600181111561134a57611349613645565b5b8152602001908152602001600020805480602002602001604051908101604052809291908181526020016000905b8282101561146d57838290600052602060002090600602016040518060e0016040529081600082015481526020016001820160009054906101000a900473ffffffffffffffffffffffffffffffffffffffff1673ffffffffffffffffffffffffffffffffffffffff1673ffffffffffffffffffffffffffffffffffffffff1681526020016001820160149054906101000a900460ff1660018111156114205761141f613645565b5b600181111561143257611431613645565b5b815260200160028201548152602001600382015481526020016004820154815260200160058201548152505081526020019060010190611378565b50505050905092915050565b60008060009054906101000a900473ffffffffffffffffffffffffffffffffffffffff16905090565b6114aa6129b3565b73ffffffffffffffffffffffffffffffffffffffff166114c8611479565b73ffffffffffffffffffffffffffffffffffffffff161461151e576040517f08c379a00000000000000000000000000000000000000000000000000000000081526004016115159061336d565b60405180910390fd5b61152882826129bb565b5050565b600060018111156115405761153f613645565b5b84600181111561155357611552613645565b5b14156116235761156c8282612bd090919063ffffffff16565b600360008773ffffffffffffffffffffffffffffffffffffffff1673ffffffffffffffffffffffffffffffffffffffff16815260200190815260200160002060007f4554480000000000000000000000000000000000000000000000000000000000815260200190815260200160002054101561161e576040517f08c379a00000000000000000000000000000000000000000000000000000000081526004016116159061338d565b60405180910390fd5b6116e4565b60018081111561163657611635613645565b5b84600181111561164957611648613645565b5b14156116e35780600360008773ffffffffffffffffffffffffffffffffffffffff1673ffffffffffffffffffffffffffffffffffffffff16815260200190815260200160002060008581526020019081526020016000205410156116e2576040517f08c379a00000000000000000000000000000000000000000000000000000000081526004016116d99061332d565b60405180910390fd5b5b5b5050505050565b60008060009050600080600181111561170757611706613645565b5b86600181111561171a57611719613645565b5b141561198157600192506000806000869050600460008981526020019081526020016000206000878152602001908152602001600020935060005b84805490508110801561176757508786105b156118c6576000858281548110611781576117806136a3565b5b9060005260206000209060060201600501548683815481106117a6576117a56136a3565b5b9060005260206000209060060201600301546117c291906134c2565b905080831115611849576118038683815481106117e2576117e16136a3565b5b90600052602060002090600602016004015482612bd090919063ffffffff16565b9350611818848661299d90919063ffffffff16565b945061182d818861299d90919063ffffffff16565b96506118428184612af690919063ffffffff16565b92506118b2565b611880838784815481106118605761185f6136a3565b5b906000526020600020906006020160040154612bd090919063ffffffff16565b9350611895848661299d90919063ffffffff16565b94506118aa838861299d90919063ffffffff16565b9650506118c6565b5080806118be906135cd565b915050611755565b5082600360003373ffffffffffffffffffffffffffffffffffffffff1673ffffffffffffffffffffffffffffffffffffffff16815260200190815260200160002060007f455448000000000000000000000000000000000000000000000000000000000081526020019081526020016000205411611979576040517f08c379a0000000000000000000000000000000000000000000000000000000008152600401611970906132cd565b60405180910390fd5b505050611a19565b83600360003373ffffffffffffffffffffffffffffffffffffffff1673ffffffffffffffffffffffffffffffffffffffff1681526020019081526020016000206000878152602001908152602001600020541015611a14576040517f08c379a0000000000000000000000000000000000000000000000000000000008152600401611a0b906132ad565b60405180910390fd5b600092505b60046000868152602001908152602001600020600084815260200190815260200160002090506000915060005b818054905081108015611a5857508483105b156124e2576000611a728487612af690919063ffffffff16565b90506000611ad1848481548110611a8c57611a8b6136a3565b5b906000526020600020906006020160050154858581548110611ab157611ab06136a3565b5b906000526020600020906006020160030154612af690919063ffffffff16565b9050600081831015611ae557829050611ae9565b8190505b611b2081868681548110611b0057611aff6136a3565b5b90600052602060002090600602016005015461299d90919063ffffffff16565b858581548110611b3357611b326136a3565b5b906000526020600020906006020160050181905550611b5b818761299d90919063ffffffff16565b95506000611b96868681548110611b7557611b746136a3565b5b90600052602060002090600602016004015483612bd090919063ffffffff16565b905060006001811115611bac57611bab613645565b5b8b6001811115611bbf57611bbe613645565b5b141561203257611c6c8260036000898981548110611be057611bdf6136a3565b5b906000526020600020906006020160010160009054906101000a900473ffffffffffffffffffffffffffffffffffffffff1673ffffffffffffffffffffffffffffffffffffffff1673ffffffffffffffffffffffffffffffffffffffff16815260200190815260200160002060008d815260200190815260200160002054612af690919063ffffffff16565b60036000888881548110611c8357611c826136a3565b5b906000526020600020906006020160010160009054906101000a900473ffffffffffffffffffffffffffffffffffffffff1673ffffffffffffffffffffffffffffffffffffffff1673ffffffffffffffffffffffffffffffffffffffff16815260200190815260200160002060008c815260200190815260200160002081905550611dcb8160036000898981548110611d1f57611d1e6136a3565b5b906000526020600020906006020160010160009054906101000a900473ffffffffffffffffffffffffffffffffffffffff1673ffffffffffffffffffffffffffffffffffffffff1673ffffffffffffffffffffffffffffffffffffffff16815260200190815260200160002060007f455448000000000000000000000000000000000000000000000000000000000081526020019081526020016000205461299d90919063ffffffff16565b60036000888881548110611de257611de16136a3565b5b906000526020600020906006020160010160009054906101000a900473ffffffffffffffffffffffffffffffffffffffff1673ffffffffffffffffffffffffffffffffffffffff1673ffffffffffffffffffffffffffffffffffffffff16815260200190815260200160002060007f4554480000000000000000000000000000000000000000000000000000000000815260200190815260200160002081905550611ee682600360003373ffffffffffffffffffffffffffffffffffffffff1673ffffffffffffffffffffffffffffffffffffffff16815260200190815260200160002060008d81526020019081526020016000205461299d90919063ffffffff16565b600360003373ffffffffffffffffffffffffffffffffffffffff1673ffffffffffffffffffffffffffffffffffffffff16815260200190815260200160002060008c815260200190815260200160002081905550611fbd81600360003373ffffffffffffffffffffffffffffffffffffffff1673ffffffffffffffffffffffffffffffffffffffff16815260200190815260200160002060007f4554480000000000000000000000000000000000000000000000000000000000815260200190815260200160002054612af690919063ffffffff16565b600360003373ffffffffffffffffffffffffffffffffffffffff1673ffffffffffffffffffffffffffffffffffffffff16815260200190815260200160002060007f45544800000000000000000000000000000000000000000000000000000000008152602001908152602001600020819055505b60018081111561204557612044613645565b5b8b600181111561205857612057613645565b5b14156124cb576121258160036000898981548110612079576120786136a3565b5b906000526020600020906006020160010160009054906101000a900473ffffffffffffffffffffffffffffffffffffffff1673ffffffffffffffffffffffffffffffffffffffff1673ffffffffffffffffffffffffffffffffffffffff16815260200190815260200160002060007f4554480000000000000000000000000000000000000000000000000000000000815260200190815260200160002054612af690919063ffffffff16565b6003600088888154811061213c5761213b6136a3565b5b906000526020600020906006020160010160009054906101000a900473ffffffffffffffffffffffffffffffffffffffff1673ffffffffffffffffffffffffffffffffffffffff1673ffffffffffffffffffffffffffffffffffffffff16815260200190815260200160002060007f455448000000000000000000000000000000000000000000000000000000000081526020019081526020016000208190555061228482600360008989815481106121f8576121f76136a3565b5b906000526020600020906006020160010160009054906101000a900473ffffffffffffffffffffffffffffffffffffffff1673ffffffffffffffffffffffffffffffffffffffff1673ffffffffffffffffffffffffffffffffffffffff16815260200190815260200160002060008d81526020019081526020016000205461299d90919063ffffffff16565b6003600088888154811061229b5761229a6136a3565b5b906000526020600020906006020160010160009054906101000a900473ffffffffffffffffffffffffffffffffffffffff1673ffffffffffffffffffffffffffffffffffffffff1673ffffffffffffffffffffffffffffffffffffffff16815260200190815260200160002060008c81526020019081526020016000208190555061239f81600360003373ffffffffffffffffffffffffffffffffffffffff1673ffffffffffffffffffffffffffffffffffffffff16815260200190815260200160002060007f455448000000000000000000000000000000000000000000000000000000000081526020019081526020016000205461299d90919063ffffffff16565b600360003373ffffffffffffffffffffffffffffffffffffffff1673ffffffffffffffffffffffffffffffffffffffff16815260200190815260200160002060007f455448000000000000000000000000000000000000000000000000000000000081526020019081526020016000208190555061247682600360003373ffffffffffffffffffffffffffffffffffffffff1673ffffffffffffffffffffffffffffffffffffffff16815260200190815260200160002060008d815260200190815260200160002054612af690919063ffffffff16565b600360003373ffffffffffffffffffffffffffffffffffffffff1673ffffffffffffffffffffffffffffffffffffffff16815260200190815260200160002060008c8152602001908152602001600020819055505b5050505080806124da906135cd565b915050611a46565b505b60008180549050118015612541575080600081548110612507576125066136a3565b5b9060005260206000209060060201600301548160008154811061252d5761252c6136a3565b5b906000526020600020906006020160050154145b1561272e5760005b6001828054905061255a91906134c2565b81101561269b578160018261256f9190613412565b815481106125805761257f6136a3565b5b90600052602060002090600602018282815481106125a1576125a06136a3565b5b9060005260206000209060060201600082015481600001556001820160009054906101000a900473ffffffffffffffffffffffffffffffffffffffff168160010160006101000a81548173ffffffffffffffffffffffffffffffffffffffff021916908373ffffffffffffffffffffffffffffffffffffffff1602179055506001820160149054906101000a900460ff168160010160146101000a81548160ff0219169083600181111561265857612657613645565b5b0217905550600282015481600201556003820154816003015560048201548160040155600582015481600501559050508080612693906135cd565b915050612549565b50808054806126ad576126ac613674565b5b60019003818190600052602060002090600602016000808201600090556001820160006101000a81549073ffffffffffffffffffffffffffffffffffffffff02191690556001820160146101000a81549060ff02191690556002820160009055600382016000905560048201600090556005820160009055505090556124e4565b505050505050565b61273e6129b3565b73ffffffffffffffffffffffffffffffffffffffff1661275c611479565b73ffffffffffffffffffffffffffffffffffffffff16146127b2576040517f08c379a00000000000000000000000000000000000000000000000000000000081526004016127a99061336d565b60405180910390fd5b600073ffffffffffffffffffffffffffffffffffffffff168173ffffffffffffffffffffffffffffffffffffffff161415612822576040517f08c379a0000000000000000000000000000000000000000000000000000000008152600401612819906132ed565b60405180910390fd5b61282b81612b0c565b50565b60006128b334600360003373ffffffffffffffffffffffffffffffffffffffff1673ffffffffffffffffffffffffffffffffffffffff16815260200190815260200160002060007f455448000000000000000000000000000000000000000000000000000000000081526020019081526020016000205461299d90919063ffffffff16565b600360003373ffffffffffffffffffffffffffffffffffffffff1673ffffffffffffffffffffffffffffffffffffffff16815260200190815260200160002060007f4554480000000000000000000000000000000000000000000000000000000000815260200190815260200160002081905550600360003373ffffffffffffffffffffffffffffffffffffffff1673ffffffffffffffffffffffffffffffffffffffff16815260200190815260200160002060007f4554480000000000000000000000000000000000000000000000000000000000815260200190815260200160002054905090565b600081836129ab9190613412565b905092915050565b600033905090565b6129c36129b3565b73ffffffffffffffffffffffffffffffffffffffff166129e1611479565b73ffffffffffffffffffffffffffffffffffffffff1614612a37576040517f08c379a0000000000000000000000000000000000000000000000000000000008152600401612a2e9061336d565b60405180910390fd5b60405180604001604052808381526020018273ffffffffffffffffffffffffffffffffffffffff16815250600160008481526020019081526020016000206000820151816000015560208201518160010160006101000a81548173ffffffffffffffffffffffffffffffffffffffff021916908373ffffffffffffffffffffffffffffffffffffffff16021790555090505060028290806001815401808255809150506001900390600052602060002001600090919091909150555050565b60008183612b0491906134c2565b905092915050565b60008060009054906101000a900473ffffffffffffffffffffffffffffffffffffffff169050816000806101000a81548173ffffffffffffffffffffffffffffffffffffffff021916908373ffffffffffffffffffffffffffffffffffffffff1602179055508173ffffffffffffffffffffffffffffffffffffffff168173ffffffffffffffffffffffffffffffffffffffff167f8be0079c531659141344cd1fd0a4f28419497f9722a3daafe3b4186f6b6457e060405160405180910390a35050565b60008183612bde9190613468565b905092915050565b600081359050612bf58161387f565b92915050565b600081519050612c0a81613896565b92915050565b600081359050612c1f816138ad565b92915050565b600081359050612c34816138c4565b92915050565b600081359050612c49816138d4565b92915050565b600060208284031215612c6557612c646136d2565b5b6000612c7384828501612be6565b91505092915050565b60008060408385031215612c9357612c926136d2565b5b6000612ca185828601612be6565b9250506020612cb285828601612c10565b9150509250929050565b600080600080600060a08688031215612cd857612cd76136d2565b5b6000612ce688828901612be6565b9550506020612cf788828901612c25565b9450506040612d0888828901612c10565b9350506060612d1988828901612c3a565b9250506080612d2a88828901612c3a565b9150509295509295909350565b600060208284031215612d4d57612d4c6136d2565b5b6000612d5b84828501612bfb565b91505092915050565b600060208284031215612d7a57612d796136d2565b5b6000612d8884828501612c10565b91505092915050565b60008060408385031215612da857612da76136d2565b5b6000612db685828601612c10565b9250506020612dc785828601612be6565b9150509250929050565b60008060408385031215612de857612de76136d2565b5b6000612df685828601612c10565b9250506020612e0785828601612c25565b9150509250929050565b60008060408385031215612e2857612e276136d2565b5b6000612e3685828601612c10565b9250506020612e4785828601612c3a565b9150509250929050565b600080600060608486031215612e6a57612e696136d2565b5b6000612e7886828701612c25565b9350506020612e8986828701612c10565b9250506040612e9a86828701612c3a565b9150509250925092565b60008060008060808587031215612ebe57612ebd6136d2565b5b6000612ecc87828801612c25565b9450506020612edd87828801612c10565b9350506040612eee87828801612c3a565b9250506060612eff87828801612c3a565b91505092959194509250565b600060208284031215612f2157612f206136d2565b5b6000612f2f84828501612c3a565b91505092915050565b6000612f448383613120565b60e08301905092915050565b612f598161355b565b82525050565b612f68816134f6565b82525050565b612f77816134f6565b82525050565b6000612f88826133d8565b612f9281856133f0565b9350612f9d836133c8565b8060005b83811015612fce578151612fb58882612f38565b9750612fc0836133e3565b925050600181019050612fa1565b5085935050505092915050565b612fe481613514565b82525050565b612ff381613514565b82525050565b6130028161356d565b82525050565b6000613015601d83613401565b9150613020826136d7565b602082019050919050565b6000613038601283613401565b915061304382613700565b602082019050919050565b600061305b602683613401565b915061306682613729565b604082019050919050565b600061307e601483613401565b915061308982613778565b602082019050919050565b60006130a1602183613401565b91506130ac826137a1565b604082019050919050565b60006130c4601883613401565b91506130cf826137f0565b602082019050919050565b60006130e7602083613401565b91506130f282613819565b602082019050919050565b600061310a601b83613401565b915061311582613842565b602082019050919050565b60e08201600082015161313660008501826131ae565b5060208201516131496020850182612f5f565b50604082015161315c6040850182612ff9565b50606082015161316f6060850182612fdb565b50608082015161318260808501826131ae565b5060a082015161319560a08501826131ae565b5060c08201516131a860c08501826131ae565b50505050565b6131b781613551565b82525050565b6131c681613551565b82525050565b60006020820190506131e16000830184612f6e565b92915050565b60006040820190506131fc6000830185612f50565b61320960208301846131bd565b9392505050565b60006060820190506132256000830186612f6e565b6132326020830185612f6e565b61323f60408301846131bd565b949350505050565b600060208201905081810360008301526132618184612f7d565b905092915050565b600060208201905061327e6000830184612fea565b92915050565b60006040820190506132996000830185612fea565b6132a66020830184612f6e565b9392505050565b600060208201905081810360008301526132c681613008565b9050919050565b600060208201905081810360008301526132e68161302b565b9050919050565b600060208201905081810360008301526133068161304e565b9050919050565b6000602082019050818103600083015261332681613071565b9050919050565b6000602082019050818103600083015261334681613094565b9050919050565b60006020820190508181036000830152613366816130b7565b9050919050565b60006020820190508181036000830152613386816130da565b9050919050565b600060208201905081810360008301526133a6816130fd565b9050919050565b60006020820190506133c260008301846131bd565b92915050565b6000819050602082019050919050565b600081519050919050565b6000602082019050919050565b600082825260208201905092915050565b600082825260208201905092915050565b600061341d82613551565b915061342883613551565b9250827fffffffffffffffffffffffffffffffffffffffffffffffffffffffffffffffff0382111561345d5761345c613616565b5b828201905092915050565b600061347382613551565b915061347e83613551565b9250817fffffffffffffffffffffffffffffffffffffffffffffffffffffffffffffffff04831182151516156134b7576134b6613616565b5b828202905092915050565b60006134cd82613551565b91506134d883613551565b9250828210156134eb576134ea613616565b5b828203905092915050565b600061350182613531565b9050919050565b60008115159050919050565b6000819050919050565b600081905061352c8261386b565b919050565b600073ffffffffffffffffffffffffffffffffffffffff82169050919050565b6000819050919050565b60006135668261357f565b9050919050565b60006135788261351e565b9050919050565b600061358a82613591565b9050919050565b600061359c82613531565b9050919050565b60006135ae82613551565b915060008214156135c2576135c1613616565b5b600182039050919050565b60006135d882613551565b91507fffffffffffffffffffffffffffffffffffffffffffffffffffffffffffffffff82141561360b5761360a613616565b5b600182019050919050565b7f4e487b7100000000000000000000000000000000000000000000000000000000600052601160045260246000fd5b7f4e487b7100000000000000000000000000000000000000000000000000000000600052602160045260246000fd5b7f4e487b7100000000000000000000000000000000000000000000000000000000600052603160045260246000fd5b7f4e487b7100000000000000000000000000000000000000000000000000000000600052603260045260246000fd5b600080fd5b7f455243323020546f6b656e2062616c616e636520746f6f206c6f772121000000600082015250565b7f4e4f5420454e4f55474820455448212121210000000000000000000000000000600082015250565b7f4f776e61626c653a206e6577206f776e657220697320746865207a65726f206160008201527f6464726573730000000000000000000000000000000000000000000000000000602082015250565b7f546f6b656e20646f6573206e6f74206578697374000000000000000000000000600082015250565b7f20596f757220455243323020546f6b656e2042616c616e636520746f6f206c6f60008201527f7700000000000000000000000000000000000000000000000000000000000000602082015250565b7f2042616c616e6365206e6f742073756666696369656e74200000000000000000600082015250565b7f4f776e61626c653a2063616c6c6572206973206e6f7420746865206f776e6572600082015250565b7f596f7572204554482042616c616e636520697320746f6f206c6f770000000000600082015250565b6002811061387c5761387b613645565b5b50565b613888816134f6565b811461389357600080fd5b50565b61389f81613508565b81146138aa57600080fd5b50565b6138b681613514565b81146138c157600080fd5b50565b600281106138d157600080fd5b50565b6138dd81613551565b81146138e857600080fd5b5056fea2646970667358221220a5f8b0adf868077abfd4f1808a38af4c2ef2024093f7dbf989e222ee7f28faec64736f6c63430008060033",
  "immutableReferences": {},
  "source": "// SPDX-License-Identifier: Undefined\n\npragma solidity 0.8.6;\npragma experimental ABIEncoderV2;\n\nimport \"../node_modules/@openzeppelin/contracts/token/ERC20/IERC20.sol\";\nimport \"../node_modules/@openzeppelin/contracts/utils/math/SafeMath.sol\";\nimport \"../node_modules/@openzeppelin/contracts/access/Ownable.sol\";\nimport \"../contracts/Wallet.sol\";\n\ncontract Dex_NoExecuteFunction is Wallet {\n\t// Dex.defaults = ({gasPrice: 0,})\n\n\tusing SafeMath for uint256;\n\n\tenum side {\n\t\tBUY,\n\t\tSELL\n\t}\n\n\tstruct Order {\n\t\tuint256 id;\n\t\taddress traderAddress;\n\t\tside orderSide;\n\t\tbytes32 ticker;\n\t\tuint256 amount;\n\t\tuint256 price;\n\t\tuint256 filled;\n\t}\n\n\tmapping(bytes32 => mapping(uint256 => Order[])) Orderbook;\n\n\tuint256 nextOrderId = 0;\n\n\tfunction getOrderbook(bytes32 _ticker, side orderSide) public view returns (Order[] memory) {\n\t\treturn Orderbook[_ticker][uint256(orderSide)];\n\t}\n\n\tfunction checkBalance(\n\t\taddress _trader,\n\t\tside orderSide,\n\t\tbytes32 _ticker,\n\t\tuint256 _price,\n\t\tuint256 _amount\n\t) public view {\n\t\tif (orderSide == side.BUY) {\n\t\t\trequire(balances[_trader][\"ETH\"] >= _amount.mul(_price), \"Your ETH Balance is too low\");\n\t\t} else if (orderSide == side.SELL) {\n\t\t\trequire(balances[_trader][_ticker] >= _amount, \" Your ERC20 Token Balance too low\");\n\t\t}\n\t}\n\n\tfunction createLimitOrder(\n\t\tside orderSide,\n\t\tbytes32 _ticker,\n\t\tuint256 _price,\n\t\tuint256 _amount\n\t) public {\n\t\tcheckBalance(msg.sender, orderSide, _ticker, _price, _amount);\n\n\t\tOrder[] storage orders = Orderbook[_ticker][uint256(orderSide)];\n\t\torders.push(Order(nextOrderId, msg.sender, orderSide, _ticker, _amount, _price, 0));\n\t\tuint256 i = orders.length > 0 ? orders.length - 1 : 0;\n\n\t\tif (orderSide == side.BUY) {\n\t\t\twhile (i > 0) {\n\t\t\t\tif (orders[i].price < orders[i - 1].price) {\n\t\t\t\t\tbreak;\n\t\t\t\t}\n\t\t\t\tOrder memory orderToMove = orders[i];\n\t\t\t\torders[i] = orders[i - 1];\n\t\t\t\torders[i - 1] = orderToMove;\n\t\t\t\ti--;\n\t\t\t}\n\t\t} else if (orderSide == side.SELL) {\n\t\t\twhile (i > 0) {\n\t\t\t\tif (orders[i - 1].price < orders[i].price) {\n\t\t\t\t\tbreak;\n\t\t\t\t}\n\t\t\t\tOrder memory orderToMove = orders[i - 1];\n\t\t\t\torders[i - 1] = orders[i];\n\t\t\t\torders[i] = orderToMove;\n\t\t\t\ti--;\n\t\t\t}\n\t\t}\n\t\tnextOrderId++;\n\t}\n\n\tfunction executeOrder(\n\t\tside orderSide,\n\t\tbytes32 _ticker,\n\t\tOrder[] storage orders,\n\t\tuint256 _amount,\n\t\tuint256 i\n\t) private {\n\t\tuint256 cost = _amount.mul(orders[i].price);\n\t\tif (orderSide == side.BUY) {\n\t\t\tbalances[orders[i].traderAddress][_ticker] = balances[orders[i].traderAddress][_ticker].sub(_amount); // remove ERC20 Token from  order on sell side address\n\n\t\t\tbalances[orders[i].traderAddress][\"ETH\"] = balances[orders[i].traderAddress][\"ETH\"].add(cost); //  add ETH to seller address\n\n\t\t\tbalances[msg.sender][_ticker] = balances[msg.sender][_ticker].add(_amount); // add ERC20 Token to buyer address\n\t\t\tbalances[msg.sender][\"ETH\"] = balances[msg.sender][\"ETH\"].sub(cost); // remove ETH from  buyer side address\n\t\t}\n\t\tif (orderSide == side.SELL) {\n\t\t\t// remove ETH from  order on buyer side address\n\t\t\tbalances[orders[i].traderAddress][\"ETH\"] = balances[orders[i].traderAddress][\"ETH\"].sub(cost);\n\n\t\t\t//  add erc20 Token to buyer address\n\t\t\tbalances[orders[i].traderAddress][_ticker] = balances[orders[i].traderAddress][_ticker].add(_amount);\n\n\t\t\t// add ETH to seller address\n\t\t\tbalances[msg.sender][\"ETH\"] = balances[msg.sender][\"ETH\"].add(cost);\n\t\t\t// remove erc20 Token from   side address\n\t\t\tbalances[msg.sender][_ticker] = balances[msg.sender][_ticker].sub(_amount);\n\t\t}\n\t}\n\n\tevent ExecuteOrder(side orderSide, bytes32 _ticker, Order[] orders, uint256 _amount, uint256 i, string message);\n\n\tfunction marketOrder(\n\t\tside orderSide,\n\t\tbytes32 _ticker,\n\t\tuint256 _amount\n\t) public {\n\t\tuint256 marketOrderSide;\n\t\tuint256 totalFilled = 0;\n\t\tOrder[] storage orders;\n\n\t\tif (orderSide == side.BUY) {\n\t\t\tmarketOrderSide = 1;\n\t\t\t// require that there is enough eth for the transaction\n\t\t\tuint256 orderBookTotal;\n\t\t\tuint256 currentOrderTotal;\n\t\t\tuint256 orderLeftToFill = _amount;\n\n\t\t\torders = Orderbook[_ticker][marketOrderSide];\n\n\t\t\tfor (uint256 i = 0; i < orders.length && totalFilled < _amount; i++) {\n\t\t\t\tuint256 availableToFill = orders[i].amount - orders[i].filled;\n\n\t\t\t\tif (orderLeftToFill > availableToFill) {\n\t\t\t\t\tcurrentOrderTotal = (availableToFill).mul(orders[i].price);\n\t\t\t\t\torderBookTotal = orderBookTotal.add(currentOrderTotal);\n\t\t\t\t\ttotalFilled = totalFilled.add(availableToFill);\n\t\t\t\t\torderLeftToFill = orderLeftToFill.sub(availableToFill);\n\t\t\t\t} else {\n\t\t\t\t\tcurrentOrderTotal = (orders[i].price).mul(orderLeftToFill);\n\t\t\t\t\torderBookTotal = orderBookTotal.add(currentOrderTotal);\n\t\t\t\t\ttotalFilled = totalFilled.add(orderLeftToFill);\n\t\t\t\t\tbreak;\n\t\t\t\t}\n\t\t\t}\n\t\t\trequire(balances[msg.sender][\"ETH\"] > orderBookTotal, \"NOT ENOUGH ETH!!!!\");\n\t\t} else {\n\t\t\t// if sell order\n\t\t\trequire(balances[msg.sender][_ticker] >= _amount, \"ERC20 Token balance too low!!\");\n\t\t\tmarketOrderSide = 0;\n\t\t\t//   orders = Orderbook[_ticker][marketOrderSide];\n\t\t\t//   require(\n\t\t\t//     balances[msg.sender][_ticker] > _amount,\n\t\t\t//     \"ERC20 Token balance too low!!\"\n\t\t\t//   );\n\t\t}\n\t\torders = Orderbook[_ticker][marketOrderSide];\n\t\ttotalFilled = 0;\n\n\t\tfor (uint256 i = 0; i < orders.length && totalFilled < _amount; i++) {\n\t\t\tuint256 leftToFill = _amount.sub(totalFilled);\n\t\t\tuint256 availableToFill = orders[i].amount.sub(orders[i].filled);\n\t\t\tuint256 filled;\n\n\t\t\tif (leftToFill < availableToFill) {\n\t\t\t\tfilled = leftToFill;\n\t\t\t} else {\n\t\t\t\tfilled = availableToFill;\n\t\t\t}\n\n\t\t\torders[i].filled = orders[i].filled.add(filled);\n\t\t\ttotalFilled = totalFilled.add(filled);\n\n\t\t\tuint256 cost = filled.mul(orders[i].price);\n\n\t\t\tif (orderSide == side.BUY) {\n\t\t\t\t// require(balances[msg.sender][\"ETH\"] >= cost, \"NOT ENOUGH ETH!!!!\");\n\t\t\t\tbalances[orders[i].traderAddress][_ticker] = balances[orders[i].traderAddress][_ticker].sub(filled);\n\t\t\t\tbalances[orders[i].traderAddress][\"ETH\"] = balances[orders[i].traderAddress][\"ETH\"].add(cost);\n\n\t\t\t\tbalances[msg.sender][_ticker] = balances[msg.sender][_ticker].add(filled);\n\t\t\t\tbalances[msg.sender][\"ETH\"] = balances[msg.sender][\"ETH\"].sub(cost);\n\t\t\t}\n\n\t\t\tif (orderSide == side.SELL) {\n\t\t\t\tbalances[orders[i].traderAddress][\"ETH\"] = balances[orders[i].traderAddress][\"ETH\"].sub(cost);\n\t\t\t\tbalances[orders[i].traderAddress][_ticker] = balances[orders[i].traderAddress][_ticker].add(filled);\n\n\t\t\t\tbalances[msg.sender][\"ETH\"] = balances[msg.sender][\"ETH\"].add(cost);\n\t\t\t\tbalances[msg.sender][_ticker] = balances[msg.sender][_ticker].sub(filled);\n\t\t\t}\n\t\t}\n\n\t\twhile (orders.length > 0 && orders[0].filled == orders[0].amount) {\n\t\t\t// if the order is filled remove the order for the orderbook\n\n\t\t\tfor (uint256 j = 0; j < orders.length - 1; j++) {\n\t\t\t\torders[j] = orders[j + 1];\n\t\t\t}\n\n\t\t\torders.pop();\n\t\t}\n\t}\n}\n",
  "sourcePath": "/Users/flatart/Documents/Coding/Projects/DEX/contracts/Dx_no execute Function.sol",
  "compiler": {
    "name": "solc",
    "version": "0.8.6+commit.11564f7e.Emscripten.clang"
  },
  "schemaVersion": "3.4.2",
  "updatedAt": "2021-08-11T13:52:23.122Z",
  "devdoc": {
    "kind": "dev",
    "methods": {
      "owner()": {
        "details": "Returns the address of the current owner."
      },
      "renounceOwnership()": {
        "details": "Leaves the contract without owner. It will not be possible to call `onlyOwner` functions anymore. Can only be called by the current owner. NOTE: Renouncing ownership will leave the contract without an owner, thereby removing any functionality that is only available to the owner."
      },
      "transferOwnership(address)": {
        "details": "Transfers ownership of the contract to a new account (`newOwner`). Can only be called by the current owner."
      }
    },
    "version": 1
  },
  "userdoc": {
    "kind": "user",
    "methods": {},
    "version": 1
  }
}