{
  "contractName": "Wallet",
  "abi": [
    {
      "anonymous": false,
      "inputs": [
        {
          "indexed": true,
          "internalType": "address",
          "name": "previousOwner",
          "type": "address"
        },
        {
          "indexed": true,
          "internalType": "address",
          "name": "newOwner",
          "type": "address"
        }
      ],
      "name": "OwnershipTransferred",
      "type": "event"
    },
    {
      "inputs": [
        {
          "internalType": "uint256",
          "name": "",
          "type": "uint256"
        }
      ],
      "name": "Tokenlist",
      "outputs": [
        {
          "internalType": "bytes32",
          "name": "",
          "type": "bytes32"
        }
      ],
      "stateMutability": "view",
      "type": "function"
    },
    {
      "inputs": [
        {
          "internalType": "address",
          "name": "",
          "type": "address"
        },
        {
          "internalType": "bytes32",
          "name": "",
          "type": "bytes32"
        }
      ],
      "name": "balances",
      "outputs": [
        {
          "internalType": "uint256",
          "name": "",
          "type": "uint256"
        }
      ],
      "stateMutability": "view",
      "type": "function"
    },
    {
      "inputs": [],
      "name": "owner",
      "outputs": [
        {
          "internalType": "address",
          "name": "",
          "type": "address"
        }
      ],
      "stateMutability": "view",
      "type": "function"
    },
    {
      "inputs": [],
      "name": "renounceOwnership",
      "outputs": [],
      "stateMutability": "nonpayable",
      "type": "function"
    },
    {
      "inputs": [
        {
          "internalType": "bytes32",
          "name": "",
          "type": "bytes32"
        }
      ],
      "name": "tokenMapping",
      "outputs": [
        {
          "internalType": "bytes32",
          "name": "ticker",
          "type": "bytes32"
        },
        {
          "internalType": "address",
          "name": "tokenAddress",
          "type": "address"
        }
      ],
      "stateMutability": "view",
      "type": "function"
    },
    {
      "inputs": [
        {
          "internalType": "address",
          "name": "newOwner",
          "type": "address"
        }
      ],
      "name": "transferOwnership",
      "outputs": [],
      "stateMutability": "nonpayable",
      "type": "function"
    },
    {
      "inputs": [
        {
          "internalType": "bytes32",
          "name": "_ticker",
          "type": "bytes32"
        },
        {
          "internalType": "address",
          "name": "_tokenAddress",
          "type": "address"
        }
      ],
      "name": "addToken",
      "outputs": [],
      "stateMutability": "nonpayable",
      "type": "function"
    },
    {
      "inputs": [],
      "name": "addEthToken",
      "outputs": [],
      "stateMutability": "nonpayable",
      "type": "function"
    },
    {
      "inputs": [
        {
          "internalType": "bytes32",
          "name": "_ticker",
          "type": "bytes32"
        },
        {
          "internalType": "uint256",
          "name": "amount",
          "type": "uint256"
        }
      ],
      "name": "deposit",
      "outputs": [],
      "stateMutability": "nonpayable",
      "type": "function"
    },
    {
      "inputs": [],
      "name": "depositETH",
      "outputs": [
        {
          "internalType": "uint256",
          "name": "",
          "type": "uint256"
        }
      ],
      "stateMutability": "payable",
      "type": "function"
    },
    {
      "inputs": [
        {
          "internalType": "bytes32",
          "name": "_ticker",
          "type": "bytes32"
        },
        {
          "internalType": "uint256",
          "name": "amount",
          "type": "uint256"
        }
      ],
      "name": "withdrawal",
      "outputs": [],
      "stateMutability": "nonpayable",
      "type": "function"
    }
  ],
  "bytecode": "0x608060405234801561001057600080fd5b5061002d61002261003260201b60201c565b61003a60201b60201c565b6100fe565b600033905090565b60008060009054906101000a900473ffffffffffffffffffffffffffffffffffffffff169050816000806101000a81548173ffffffffffffffffffffffffffffffffffffffff021916908373ffffffffffffffffffffffffffffffffffffffff1602179055508173ffffffffffffffffffffffffffffffffffffffff168173ffffffffffffffffffffffffffffffffffffffff167f8be0079c531659141344cd1fd0a4f28419497f9722a3daafe3b4186f6b6457e060405160405180910390a35050565b6114fe8061010d6000396000f3fe60806040526004361061009c5760003560e01c80636cd78da3116100645780636cd78da314610199578063715018a6146101c25780638da5cb5b146101d95780639776aacf14610204578063f2fde38b1461022d578063f6326fb3146102565761009c565b80630b8d6d71146100a15780631de26e16146100de5780631f14df69146101075780633f5789f414610144578063667cb4ba1461015b575b600080fd5b3480156100ad57600080fd5b506100c860048036038101906100c39190610ffc565b610274565b6040516100d5919061116c565b60405180910390f35b3480156100ea57600080fd5b5061010560048036038101906101009190610fbc565b610298565b005b34801561011357600080fd5b5061012e60048036038101906101299190610ee2565b6104c1565b60405161013b9190611230565b60405180910390f35b34801561015057600080fd5b506101596104e6565b005b34801561016757600080fd5b50610182600480360381019061017d9190610f4f565b61058e565b604051610190929190611187565b60405180910390f35b3480156101a557600080fd5b506101c060048036038101906101bb9190610fbc565b6105d2565b005b3480156101ce57600080fd5b506101d761088c565b005b3480156101e557600080fd5b506101ee610914565b6040516101fb91906110f1565b60405180910390f35b34801561021057600080fd5b5061022b60048036038101906102269190610f7c565b61093d565b005b34801561023957600080fd5b50610254600480360381019061024f9190610eb5565b6109c7565b005b61025e610abf565b60405161026b9190611230565b60405180910390f35b6002818154811061028457600080fd5b906000526020600020016000915090505481565b81600073ffffffffffffffffffffffffffffffffffffffff166001600083815260200190815260200160002060010160009054906101000a900473ffffffffffffffffffffffffffffffffffffffff1673ffffffffffffffffffffffffffffffffffffffff16141561033f576040517f08c379a0000000000000000000000000000000000000000000000000000000008152600401610336906111d0565b60405180910390fd5b6103a282600360003373ffffffffffffffffffffffffffffffffffffffff1673ffffffffffffffffffffffffffffffffffffffff168152602001908152602001600020600086815260200190815260200160002054610c2e90919063ffffffff16565b600360003373ffffffffffffffffffffffffffffffffffffffff1673ffffffffffffffffffffffffffffffffffffffff1681526020019081526020016000206000858152602001908152602001600020819055506001600084815260200190815260200160002060010160009054906101000a900473ffffffffffffffffffffffffffffffffffffffff1673ffffffffffffffffffffffffffffffffffffffff166323b872dd3330856040518463ffffffff1660e01b815260040161046993929190611135565b602060405180830381600087803b15801561048357600080fd5b505af1158015610497573d6000803e3d6000fd5b505050506040513d601f19601f820116820180604052508101906104bb9190610f22565b50505050565b6003602052816000526040600020602052806000526040600020600091509150505481565b6104ee610c44565b73ffffffffffffffffffffffffffffffffffffffff1661050c610914565b73ffffffffffffffffffffffffffffffffffffffff1614610562576040517f08c379a000000000000000000000000000000000000000000000000000000000815260040161055990611210565b60405180910390fd5b61058c7f455448000000000000000000000000000000000000000000000000000000000033610c4c565b565b60016020528060005260406000206000915090508060000154908060010160009054906101000a900473ffffffffffffffffffffffffffffffffffffffff16905082565b81600073ffffffffffffffffffffffffffffffffffffffff166001600083815260200190815260200160002060010160009054906101000a900473ffffffffffffffffffffffffffffffffffffffff1673ffffffffffffffffffffffffffffffffffffffff161415610679576040517f08c379a0000000000000000000000000000000000000000000000000000000008152600401610670906111d0565b60405180910390fd5b81600360003373ffffffffffffffffffffffffffffffffffffffff1673ffffffffffffffffffffffffffffffffffffffff168152602001908152602001600020600085815260200190815260200160002054101561070c576040517f08c379a0000000000000000000000000000000000000000000000000000000008152600401610703906111f0565b60405180910390fd5b61076f82600360003373ffffffffffffffffffffffffffffffffffffffff1673ffffffffffffffffffffffffffffffffffffffff168152602001908152602001600020600086815260200190815260200160002054610d8790919063ffffffff16565b600360003373ffffffffffffffffffffffffffffffffffffffff1673ffffffffffffffffffffffffffffffffffffffff1681526020019081526020016000206000858152602001908152602001600020819055506001600084815260200190815260200160002060010160009054906101000a900473ffffffffffffffffffffffffffffffffffffffff1673ffffffffffffffffffffffffffffffffffffffff1663a9059cbb33846040518363ffffffff1660e01b815260040161083492919061110c565b602060405180830381600087803b15801561084e57600080fd5b505af1158015610862573d6000803e3d6000fd5b505050506040513d601f19601f820116820180604052508101906108869190610f22565b50505050565b610894610c44565b73ffffffffffffffffffffffffffffffffffffffff166108b2610914565b73ffffffffffffffffffffffffffffffffffffffff1614610908576040517f08c379a00000000000000000000000000000000000000000000000000000000081526004016108ff90611210565b60405180910390fd5b6109126000610d9d565b565b60008060009054906101000a900473ffffffffffffffffffffffffffffffffffffffff16905090565b610945610c44565b73ffffffffffffffffffffffffffffffffffffffff16610963610914565b73ffffffffffffffffffffffffffffffffffffffff16146109b9576040517f08c379a00000000000000000000000000000000000000000000000000000000081526004016109b090611210565b60405180910390fd5b6109c38282610c4c565b5050565b6109cf610c44565b73ffffffffffffffffffffffffffffffffffffffff166109ed610914565b73ffffffffffffffffffffffffffffffffffffffff1614610a43576040517f08c379a0000000000000000000000000000000000000000000000000000000008152600401610a3a90611210565b60405180910390fd5b600073ffffffffffffffffffffffffffffffffffffffff168173ffffffffffffffffffffffffffffffffffffffff161415610ab3576040517f08c379a0000000000000000000000000000000000000000000000000000000008152600401610aaa906111b0565b60405180910390fd5b610abc81610d9d565b50565b6000610b4434600360003373ffffffffffffffffffffffffffffffffffffffff1673ffffffffffffffffffffffffffffffffffffffff16815260200190815260200160002060007f4554480000000000000000000000000000000000000000000000000000000000815260200190815260200160002054610c2e90919063ffffffff16565b600360003373ffffffffffffffffffffffffffffffffffffffff1673ffffffffffffffffffffffffffffffffffffffff16815260200190815260200160002060007f4554480000000000000000000000000000000000000000000000000000000000815260200190815260200160002081905550600360003373ffffffffffffffffffffffffffffffffffffffff1673ffffffffffffffffffffffffffffffffffffffff16815260200190815260200160002060007f4554480000000000000000000000000000000000000000000000000000000000815260200190815260200160002054905090565b60008183610c3c919061125c565b905092915050565b600033905090565b610c54610c44565b73ffffffffffffffffffffffffffffffffffffffff16610c72610914565b73ffffffffffffffffffffffffffffffffffffffff1614610cc8576040517f08c379a0000000000000000000000000000000000000000000000000000000008152600401610cbf90611210565b60405180910390fd5b60405180604001604052808381526020018273ffffffffffffffffffffffffffffffffffffffff16815250600160008481526020019081526020016000206000820151816000015560208201518160010160006101000a81548173ffffffffffffffffffffffffffffffffffffffff021916908373ffffffffffffffffffffffffffffffffffffffff16021790555090505060028290806001815401808255809150506001900390600052602060002001600090919091909150555050565b60008183610d9591906112b2565b905092915050565b60008060009054906101000a900473ffffffffffffffffffffffffffffffffffffffff169050816000806101000a81548173ffffffffffffffffffffffffffffffffffffffff021916908373ffffffffffffffffffffffffffffffffffffffff1602179055508173ffffffffffffffffffffffffffffffffffffffff168173ffffffffffffffffffffffffffffffffffffffff167f8be0079c531659141344cd1fd0a4f28419497f9722a3daafe3b4186f6b6457e060405160405180910390a35050565b600081359050610e708161146c565b92915050565b600081519050610e8581611483565b92915050565b600081359050610e9a8161149a565b92915050565b600081359050610eaf816114b1565b92915050565b600060208284031215610ecb57610eca61139d565b5b6000610ed984828501610e61565b91505092915050565b60008060408385031215610ef957610ef861139d565b5b6000610f0785828601610e61565b9250506020610f1885828601610e8b565b9150509250929050565b600060208284031215610f3857610f3761139d565b5b6000610f4684828501610e76565b91505092915050565b600060208284031215610f6557610f6461139d565b5b6000610f7384828501610e8b565b91505092915050565b60008060408385031215610f9357610f9261139d565b5b6000610fa185828601610e8b565b9250506020610fb285828601610e61565b9150509250929050565b60008060408385031215610fd357610fd261139d565b5b6000610fe185828601610e8b565b9250506020610ff285828601610ea0565b9150509250929050565b6000602082840312156110125761101161139d565b5b600061102084828501610ea0565b91505092915050565b61103281611338565b82525050565b611041816112e6565b82525050565b61105081611304565b82525050565b600061106360268361124b565b915061106e826113a2565b604082019050919050565b600061108660148361124b565b9150611091826113f1565b602082019050919050565b60006110a960188361124b565b91506110b48261141a565b602082019050919050565b60006110cc60208361124b565b91506110d782611443565b602082019050919050565b6110eb8161132e565b82525050565b60006020820190506111066000830184611038565b92915050565b60006040820190506111216000830185611029565b61112e60208301846110e2565b9392505050565b600060608201905061114a6000830186611038565b6111576020830185611038565b61116460408301846110e2565b949350505050565b60006020820190506111816000830184611047565b92915050565b600060408201905061119c6000830185611047565b6111a96020830184611038565b9392505050565b600060208201905081810360008301526111c981611056565b9050919050565b600060208201905081810360008301526111e981611079565b9050919050565b600060208201905081810360008301526112098161109c565b9050919050565b60006020820190508181036000830152611229816110bf565b9050919050565b600060208201905061124560008301846110e2565b92915050565b600082825260208201905092915050565b60006112678261132e565b91506112728361132e565b9250827fffffffffffffffffffffffffffffffffffffffffffffffffffffffffffffffff038211156112a7576112a661136e565b5b828201905092915050565b60006112bd8261132e565b91506112c88361132e565b9250828210156112db576112da61136e565b5b828203905092915050565b60006112f18261130e565b9050919050565b60008115159050919050565b6000819050919050565b600073ffffffffffffffffffffffffffffffffffffffff82169050919050565b6000819050919050565b60006113438261134a565b9050919050565b60006113558261135c565b9050919050565b60006113678261130e565b9050919050565b7f4e487b7100000000000000000000000000000000000000000000000000000000600052601160045260246000fd5b600080fd5b7f4f776e61626c653a206e6577206f776e657220697320746865207a65726f206160008201527f6464726573730000000000000000000000000000000000000000000000000000602082015250565b7f546f6b656e20646f6573206e6f74206578697374000000000000000000000000600082015250565b7f2042616c616e6365206e6f742073756666696369656e74200000000000000000600082015250565b7f4f776e61626c653a2063616c6c6572206973206e6f7420746865206f776e6572600082015250565b611475816112e6565b811461148057600080fd5b50565b61148c816112f8565b811461149757600080fd5b50565b6114a381611304565b81146114ae57600080fd5b50565b6114ba8161132e565b81146114c557600080fd5b5056fea26469706673582212209d841a908d595574d6c51c5169019268d2998db777700e867b1c2b57786528c164736f6c63430008060033",
  "immutableReferences": {},
  "source": "// SPDX-License-Identifier: Undefined\n\npragma solidity >=0.4.22 <0.9.0;\n\nimport \"../node_modules/@openzeppelin/contracts/token/ERC20/IERC20.sol\";\nimport \"../node_modules/@openzeppelin/contracts/utils/math/SafeMath.sol\";\nimport \"../node_modules/@openzeppelin/contracts/access/Ownable.sol\";\n\ncontract Wallet is Ownable {\n  using SafeMath for uint256;\n\n  struct Token {\n    bytes32 ticker;\n    address tokenAddress;\n  }\n\n  mapping(bytes32 => Token) public tokenMapping;\n  bytes32[] public Tokenlist;\n\n  mapping(address => mapping(bytes32 => uint256)) public balances;\n\n  modifier tokenExists(bytes32 _ticker) {\n    require(\n      (tokenMapping[_ticker].tokenAddress) != address(0),\n      \"Token does not exist\"\n    );\n    _;\n  }\n\n  function _addToken(bytes32 _ticker, address _tokenAddress)\n    internal\n    onlyOwner\n  {\n    tokenMapping[_ticker] = Token(_ticker, _tokenAddress);\n    Tokenlist.push(_ticker);\n  }\n\n  function addToken(bytes32 _ticker, address _tokenAddress) external onlyOwner {\n    _addToken(_ticker, _tokenAddress);\n  }\n\n  function addEthToken() external onlyOwner {\n    _addToken(\"ETH\", msg.sender);\n  }\n\n  function deposit(bytes32 _ticker, uint256 amount)\n    external\n    tokenExists(_ticker)\n  {\n    balances[msg.sender][_ticker] = balances[msg.sender][_ticker].add(amount);\n    IERC20(tokenMapping[_ticker].tokenAddress).transferFrom(\n      (msg.sender),\n      address(this),\n      amount\n    );\n  }\n\n  function depositETH() public payable returns (uint256) {\n    // require (msg.sender.balance >= msg.value);\n    balances[msg.sender][\"ETH\"] = balances[msg.sender][\"ETH\"].add(msg.value);\n    return balances[msg.sender][\"ETH\"];\n  }\n\n  // function withdrawETH() public payable returns (uint)  {\n  //         balance[msg.sender] = balance[msg.sender].add(msg.value);\n  //         return balance[msg.sender];\n\n  function withdrawal(bytes32 _ticker, uint256 amount)\n    external\n    tokenExists(_ticker)\n  {\n    require(\n      balances[msg.sender][_ticker] >= amount,\n      \" Balance not sufficient \"\n    );\n\n    balances[msg.sender][_ticker] = balances[msg.sender][_ticker].sub(amount);\n\n    IERC20(tokenMapping[_ticker].tokenAddress).transfer(\n      payable(msg.sender),\n      amount\n    );\n  }\n}\n",
  "sourcePath": "/Users/flatart/Documents/Coding/Projects/DEX/contracts/Wallet.sol",
  "compiler": {
    "name": "solc",
    "version": "0.8.6+commit.11564f7e.Emscripten.clang"
  },
  "schemaVersion": "3.4.2",
  "updatedAt": "2021-08-11T11:58:05.525Z",
  "devdoc": {
    "kind": "dev",
    "methods": {
      "owner()": {
        "details": "Returns the address of the current owner."
      },
      "renounceOwnership()": {
        "details": "Leaves the contract without owner. It will not be possible to call `onlyOwner` functions anymore. Can only be called by the current owner. NOTE: Renouncing ownership will leave the contract without an owner, thereby removing any functionality that is only available to the owner."
      },
      "transferOwnership(address)": {
        "details": "Transfers ownership of the contract to a new account (`newOwner`). Can only be called by the current owner."
      }
    },
    "version": 1
  },
  "userdoc": {
    "kind": "user",
    "methods": {},
    "version": 1
  }
}